{
  "contractName": "Dice",
  "abi": [
    {
      "constant": true,
      "inputs": [],
      "name": "completedGames",
      "outputs": [
        {
          "name": "",
          "type": "uint256"
        }
      ],
      "payable": false,
      "stateMutability": "view",
      "type": "function"
    },
    {
      "constant": true,
      "inputs": [
        {
          "name": "",
          "type": "bytes32"
        }
      ],
      "name": "_queryToGameData",
      "outputs": [
        {
          "name": "player",
          "type": "address"
        },
        {
          "name": "odds",
          "type": "uint256"
        },
        {
          "name": "trueWager",
          "type": "uint256"
        },
        {
          "name": "roll",
          "type": "uint256"
        },
        {
          "name": "maxProfit",
          "type": "uint256"
        }
      ],
      "payable": false,
      "stateMutability": "view",
      "type": "function"
    },
    {
      "constant": true,
      "inputs": [],
      "name": "owner",
      "outputs": [
        {
          "name": "",
          "type": "address"
        }
      ],
      "payable": false,
      "stateMutability": "view",
      "type": "function"
    },
    {
      "constant": false,
      "inputs": [
        {
          "name": "newOwner",
          "type": "address"
        }
      ],
      "name": "transferOwnership",
      "outputs": [],
      "payable": false,
      "stateMutability": "nonpayable",
      "type": "function"
    },
    {
      "inputs": [],
      "payable": false,
      "stateMutability": "nonpayable",
      "type": "constructor"
    },
    {
      "anonymous": false,
      "inputs": [
        {
          "indexed": true,
          "name": "player",
          "type": "address"
        },
        {
          "indexed": false,
          "name": "trueWager",
          "type": "uint256"
        },
        {
          "indexed": false,
          "name": "odds",
          "type": "uint256"
        },
        {
          "indexed": false,
          "name": "roll",
          "type": "uint256"
        },
        {
          "indexed": false,
          "name": "totalPayout",
          "type": "uint256"
        }
      ],
      "name": "RollCompleted",
      "type": "event"
    },
    {
      "anonymous": false,
      "inputs": [
        {
          "indexed": true,
          "name": "player",
          "type": "address"
        },
        {
          "indexed": false,
          "name": "odds",
          "type": "uint256"
        },
        {
          "indexed": false,
          "name": "trueWager",
          "type": "uint256"
        }
      ],
      "name": "RollSubmitted",
      "type": "event"
    },
    {
      "anonymous": false,
      "inputs": [
        {
          "indexed": true,
          "name": "player",
          "type": "address"
        },
        {
          "indexed": false,
          "name": "payout",
          "type": "uint256"
        }
      ],
      "name": "PlayerPaidOut",
      "type": "event"
    },
    {
      "anonymous": false,
      "inputs": [
        {
          "indexed": true,
          "name": "previousOwner",
          "type": "address"
        },
        {
          "indexed": true,
          "name": "newOwner",
          "type": "address"
        }
      ],
      "name": "OwnershipTransferred",
      "type": "event"
    },
    {
      "constant": false,
      "inputs": [],
      "name": "withdrawBalance",
      "outputs": [],
      "payable": false,
      "stateMutability": "nonpayable",
      "type": "function"
    },
    {
      "constant": false,
      "inputs": [],
      "name": "addBalance",
      "outputs": [],
      "payable": true,
      "stateMutability": "payable",
      "type": "function"
    },
    {
      "constant": true,
      "inputs": [],
      "name": "getMaxProfit",
      "outputs": [
        {
          "name": "",
          "type": "uint256"
        }
      ],
      "payable": false,
      "stateMutability": "view",
      "type": "function"
    },
    {
      "constant": false,
      "inputs": [
        {
          "name": "odds",
          "type": "uint256"
        }
      ],
      "name": "rollDice",
      "outputs": [],
      "payable": true,
      "stateMutability": "payable",
      "type": "function"
    },
    {
      "constant": false,
      "inputs": [
        {
          "name": "myid",
          "type": "bytes32"
        },
        {
          "name": "result",
          "type": "string"
        }
      ],
      "name": "__callback",
      "outputs": [],
      "payable": false,
      "stateMutability": "nonpayable",
      "type": "function"
    },
    {
      "constant": false,
      "inputs": [
        {
          "name": "qId",
          "type": "bytes32"
        },
        {
          "name": "result",
          "type": "string"
        },
        {
          "name": "proof",
          "type": "bytes"
        }
      ],
      "name": "__callback",
      "outputs": [],
      "payable": false,
      "stateMutability": "nonpayable",
      "type": "function"
    }
  ],
  "bytecode": "0x6080604052600060075534801561001557600080fd5b5033600560006101000a81548173ffffffffffffffffffffffffffffffffffffffff021916908373ffffffffffffffffffffffffffffffffffffffff1602179055506129cb806100666000396000f3006080604052600436106100a4576000357c0100000000000000000000000000000000000000000000000000000000900463ffffffff16806327dc297e146100a957806338bbfa50146101205780635edfd788146101dd5780635f5f4443146102085780635fd8c710146102955780638da5cb5b146102ac578063acfff37714610303578063b163cc3814610323578063ec062ac01461032d578063f2fde38b14610358575b600080fd5b3480156100b557600080fd5b5061011e6004803603810190808035600019169060200190929190803590602001908201803590602001908080601f016020809104026020016040519081016040528093929190818152602001838380828437820191505050505050919291929050505061039b565b005b34801561012c57600080fd5b506101db6004803603810190808035600019169060200190929190803590602001908201803590602001908080601f0160208091040260200160405190810160405280939291908181526020018383808284378201915050505050509192919290803590602001908201803590602001908080601f01602080910402602001604051908101604052809392919081815260200183838082843782019150505050505091929192905050506103de565b005b3480156101e957600080fd5b506101f2610640565b6040518082815260200191505060405180910390f35b34801561021457600080fd5b506102376004803603810190808035600019169060200190929190505050610646565b604051808673ffffffffffffffffffffffffffffffffffffffff1673ffffffffffffffffffffffffffffffffffffffff1681526020018581526020018481526020018381526020018281526020019550505050505060405180910390f35b3480156102a157600080fd5b506102aa61069c565b005b3480156102b857600080fd5b506102c161076d565b604051808273ffffffffffffffffffffffffffffffffffffffff1673ffffffffffffffffffffffffffffffffffffffff16815260200191505060405180910390f35b61032160048036038101908080359060200190929190505050610793565b005b61032b6109a5565b005b34801561033957600080fd5b506103426109a7565b6040518082815260200191505060405180910390f35b34801561036457600080fd5b50610399600480360381019080803573ffffffffffffffffffffffffffffffffffffffff1690602001909291905050506109d2565b005b6103da828260006040519080825280601f01601f1916602001820160405280156103d45781602001602082028038833980820191505090505b506103de565b5050565b6103e66128b4565b60008060006103f3610b2a565b73ffffffffffffffffffffffffffffffffffffffff163373ffffffffffffffffffffffffffffffffffffffff1614151561042c57600080fd5b60066000886000191660001916815260200190815260200160002060a060405190810160405290816000820160009054906101000a900473ffffffffffffffffffffffffffffffffffffffff1673ffffffffffffffffffffffffffffffffffffffff1673ffffffffffffffffffffffffffffffffffffffff1681526020016001820154815260200160028201548152602001600382015481526020016004820154815250509350600084606001511415156104e657600080fd5b6104ef86610e88565b92506104fb8784610e9a565b91508360000151905060008211156105a3578073ffffffffffffffffffffffffffffffffffffffff166108fc839081150290604051600060405180830381858888f19350505050158015610553573d6000803e3d6000fd5b508073ffffffffffffffffffffffffffffffffffffffff167fc458bc9f00c29ca11ecdfa3e970a6b5fe084d6cb81b95e63c9bb2eba922bf473836040518082815260200191505060405180910390a25b828460600181815250506105c3600160075461103b90919063ffffffff16565b6007819055508073ffffffffffffffffffffffffffffffffffffffff167faa22b2eab655d6c13d7a44a681f8d54a52089858587bb455ad28ad0b9f33a55f8560400151866020015186866040518085815260200184815260200183815260200182815260200194505050505060405180910390a250505050505050565b60075481565b60066020528060005260406000206000915090508060000160009054906101000a900473ffffffffffffffffffffffffffffffffffffffff16908060010154908060020154908060030154908060040154905085565b6000600560009054906101000a900473ffffffffffffffffffffffffffffffffffffffff1673ffffffffffffffffffffffffffffffffffffffff163373ffffffffffffffffffffffffffffffffffffffff161415156106fa57600080fd5b3073ffffffffffffffffffffffffffffffffffffffff1631905060008111151561072357600080fd5b3373ffffffffffffffffffffffffffffffffffffffff166108fc829081150290604051600060405180830381858888f19350505050158015610769573d6000803e3d6000fd5b5050565b600560009054906101000a900473ffffffffffffffffffffffffffffffffffffffff1681565b600080600080606060006107db6040805190810160405280600381526020017f55524c0000000000000000000000000000000000000000000000000000000000815250611059565b955085341115156107eb57600080fd5b6107fe863461142990919063ffffffff16565b945061080985611442565b935061081e848661142990919063ffffffff16565b925061082c60016064611456565b91506108716040805190810160405280600381526020017f55524c0000000000000000000000000000000000000000000000000000000000815250836207a12061156a565b90503373ffffffffffffffffffffffffffffffffffffffff167feb572415c627b25eebc7b29cbbef1a9608184cd772f28e749b5859267348ad078885604051808381526020018281526020019250505060405180910390a260a0604051908101604052803373ffffffffffffffffffffffffffffffffffffffff1681526020018881526020018481526020016000815260200161090c6109a7565b81525060066000836000191660001916815260200190815260200160002060008201518160000160006101000a81548173ffffffffffffffffffffffffffffffffffffffff021916908373ffffffffffffffffffffffffffffffffffffffff1602179055506020820151816001015560408201518160020155606082015181600301556080820151816004015590505050505050505050565b565b6000600a3073ffffffffffffffffffffffffffffffffffffffff16318115156109cc57fe5b04905090565b600560009054906101000a900473ffffffffffffffffffffffffffffffffffffffff1673ffffffffffffffffffffffffffffffffffffffff163373ffffffffffffffffffffffffffffffffffffffff16141515610a2e57600080fd5b600073ffffffffffffffffffffffffffffffffffffffff168173ffffffffffffffffffffffffffffffffffffffff1614151515610a6a57600080fd5b8073ffffffffffffffffffffffffffffffffffffffff16600560009054906101000a900473ffffffffffffffffffffffffffffffffffffffff1673ffffffffffffffffffffffffffffffffffffffff167f8be0079c531659141344cd1fd0a4f28419497f9722a3daafe3b4186f6b6457e060405160405180910390a380600560006101000a81548173ffffffffffffffffffffffffffffffffffffffff021916908373ffffffffffffffffffffffffffffffffffffffff16021790555050565b6000806000809054906101000a900473ffffffffffffffffffffffffffffffffffffffff1673ffffffffffffffffffffffffffffffffffffffff161480610b9a57506000610b986000809054906101000a900473ffffffffffffffffffffffffffffffffffffffff16611b1a565b145b15610bab57610ba96000611b25565b505b6000809054906101000a900473ffffffffffffffffffffffffffffffffffffffff1673ffffffffffffffffffffffffffffffffffffffff166338cc48316040518163ffffffff167c0100000000000000000000000000000000000000000000000000000000028152600401602060405180830381600087803b158015610c3057600080fd5b505af1158015610c44573d6000803e3d6000fd5b505050506040513d6020811015610c5a57600080fd5b810190808051906020019092919050505073ffffffffffffffffffffffffffffffffffffffff16600160009054906101000a900473ffffffffffffffffffffffffffffffffffffffff1673ffffffffffffffffffffffffffffffffffffffff16141515610dc2576000809054906101000a900473ffffffffffffffffffffffffffffffffffffffff1673ffffffffffffffffffffffffffffffffffffffff166338cc48316040518163ffffffff167c0100000000000000000000000000000000000000000000000000000000028152600401602060405180830381600087803b158015610d4657600080fd5b505af1158015610d5a573d6000803e3d6000fd5b505050506040513d6020811015610d7057600080fd5b8101908080519060200190929190505050600160006101000a81548173ffffffffffffffffffffffffffffffffffffffff021916908373ffffffffffffffffffffffffffffffffffffffff1602179055505b600160009054906101000a900473ffffffffffffffffffffffffffffffffffffffff1673ffffffffffffffffffffffffffffffffffffffff1663c281d19e6040518163ffffffff167c0100000000000000000000000000000000000000000000000000000000028152600401602060405180830381600087803b158015610e4857600080fd5b505af1158015610e5c573d6000803e3d6000fd5b505050506040513d6020811015610e7257600080fd5b8101908080519060200190929190505050905090565b6000610e9382611fb6565b9050919050565b6000610ea46128b4565b6000806000806000806000806000600660008e6000191660001916815260200190815260200160002060a060405190810160405290816000820160009054906101000a900473ffffffffffffffffffffffffffffffffffffffff1673ffffffffffffffffffffffffffffffffffffffff1673ffffffffffffffffffffffffffffffffffffffff168152602001600182015481526020016002820154815260200160038201548152602001600482015481525050995089602001519850888c101515610f725760009a5061102b565b8960400151975089608001519650610f9460018a61142990919063ffffffff16565b9550610faa86606461142990919063ffffffff16565b9450610fbf8686611fca90919063ffffffff16565b9350610fd48885611fe090919063ffffffff16565b9250610fe9838961103b90919063ffffffff16565b9150610ff361201b565b90508082111561100557809a5061102b565b8683111561102757611020878961103b90919063ffffffff16565b9a5061102b565b819a505b5050505050505050505092915050565b600080828401905083811015151561104f57fe5b8091505092915050565b6000806000809054906101000a900473ffffffffffffffffffffffffffffffffffffffff1673ffffffffffffffffffffffffffffffffffffffff1614806110c9575060006110c76000809054906101000a900473ffffffffffffffffffffffffffffffffffffffff16611b1a565b145b156110da576110d86000611b25565b505b6000809054906101000a900473ffffffffffffffffffffffffffffffffffffffff1673ffffffffffffffffffffffffffffffffffffffff166338cc48316040518163ffffffff167c0100000000000000000000000000000000000000000000000000000000028152600401602060405180830381600087803b15801561115f57600080fd5b505af1158015611173573d6000803e3d6000fd5b505050506040513d602081101561118957600080fd5b810190808051906020019092919050505073ffffffffffffffffffffffffffffffffffffffff16600160009054906101000a900473ffffffffffffffffffffffffffffffffffffffff1673ffffffffffffffffffffffffffffffffffffffff161415156112f1576000809054906101000a900473ffffffffffffffffffffffffffffffffffffffff1673ffffffffffffffffffffffffffffffffffffffff166338cc48316040518163ffffffff167c0100000000000000000000000000000000000000000000000000000000028152600401602060405180830381600087803b15801561127557600080fd5b505af1158015611289573d6000803e3d6000fd5b505050506040513d602081101561129f57600080fd5b8101908080519060200190929190505050600160006101000a81548173ffffffffffffffffffffffffffffffffffffffff021916908373ffffffffffffffffffffffffffffffffffffffff1602179055505b600160009054906101000a900473ffffffffffffffffffffffffffffffffffffffff1673ffffffffffffffffffffffffffffffffffffffff1663524f3889836040518263ffffffff167c01000000000000000000000000000000000000000000000000000000000281526004018080602001828103825283818151815260200191508051906020019080838360005b8381101561139b578082015181840152602081019050611380565b50505050905090810190601f1680156113c85780820380516001836020036101000a031916815260200191505b5092505050602060405180830381600087803b1580156113e757600080fd5b505af11580156113fb573d6000803e3d6000fd5b505050506040513d602081101561141157600080fd5b81019080805190602001909291905050509050919050565b600082821115151561143757fe5b818303905092915050565b600061144f826064611fca565b9050919050565b6060611562606060405190810160405280602b81526020017f68747470733a2f2f7777772e72616e646f6d2e6f72672f696e7465676572732f81526020017f3f6e756d3d31266d696e3d0000000000000000000000000000000000000000008152506114c18561203a565b6040805190810160405280600581526020017f266d61783d0000000000000000000000000000000000000000000000000000008152506115008661203a565b606060405190810160405280602381526020017f26636f6c3d3126626173653d313026666f726d61743d706c61696e26726e643d81526020017f6e65770000000000000000000000000000000000000000000000000000000000815250612191565b905092915050565b60008060008060009054906101000a900473ffffffffffffffffffffffffffffffffffffffff1673ffffffffffffffffffffffffffffffffffffffff1614806115dc575060006115da6000809054906101000a900473ffffffffffffffffffffffffffffffffffffffff16611b1a565b145b156115ed576115eb6000611b25565b505b6000809054906101000a900473ffffffffffffffffffffffffffffffffffffffff1673ffffffffffffffffffffffffffffffffffffffff166338cc48316040518163ffffffff167c0100000000000000000000000000000000000000000000000000000000028152600401602060405180830381600087803b15801561167257600080fd5b505af1158015611686573d6000803e3d6000fd5b505050506040513d602081101561169c57600080fd5b810190808051906020019092919050505073ffffffffffffffffffffffffffffffffffffffff16600160009054906101000a900473ffffffffffffffffffffffffffffffffffffffff1673ffffffffffffffffffffffffffffffffffffffff16141515611804576000809054906101000a900473ffffffffffffffffffffffffffffffffffffffff1673ffffffffffffffffffffffffffffffffffffffff166338cc48316040518163ffffffff167c0100000000000000000000000000000000000000000000000000000000028152600401602060405180830381600087803b15801561178857600080fd5b505af115801561179c573d6000803e3d6000fd5b505050506040513d60208110156117b257600080fd5b8101908080519060200190929190505050600160006101000a81548173ffffffffffffffffffffffffffffffffffffffff021916908373ffffffffffffffffffffffffffffffffffffffff1602179055505b600160009054906101000a900473ffffffffffffffffffffffffffffffffffffffff1673ffffffffffffffffffffffffffffffffffffffff16632ef3accc86856040518363ffffffff167c01000000000000000000000000000000000000000000000000000000000281526004018080602001838152602001828103825284818151815260200191508051906020019080838360005b838110156118b557808201518184015260208101905061189a565b50505050905090810190601f1680156118e25780820380516001836020036101000a031916815260200191505b509350505050602060405180830381600087803b15801561190257600080fd5b505af1158015611916573d6000803e3d6000fd5b505050506040513d602081101561192c57600080fd5b81019080805190602001909291905050509050823a02670de0b6b3a76400000181111561195f5760006001029150611b12565b600160009054906101000a900473ffffffffffffffffffffffffffffffffffffffff1673ffffffffffffffffffffffffffffffffffffffff1663c51be90f8260008888886040518663ffffffff167c0100000000000000000000000000000000000000000000000000000000028152600401808581526020018060200180602001848152602001838103835286818151815260200191508051906020019080838360005b83811015611a1e578082015181840152602081019050611a03565b50505050905090810190601f168015611a4b5780820380516001836020036101000a031916815260200191505b50838103825285818151815260200191508051906020019080838360005b83811015611a84578082015181840152602081019050611a69565b50505050905090810190601f168015611ab15780820380516001836020036101000a031916815260200191505b5096505050505050506020604051808303818588803b158015611ad357600080fd5b505af1158015611ae7573d6000803e3d6000fd5b50505050506040513d6020811015611afe57600080fd5b810190808051906020019092919050505091505b509392505050565b6000813b9050919050565b600080611b45731d3b2638a7cc9f2cb3d298a3da7a90b67e5506ed611b1a565b1115611be657731d3b2638a7cc9f2cb3d298a3da7a90b67e5506ed6000806101000a81548173ffffffffffffffffffffffffffffffffffffffff021916908373ffffffffffffffffffffffffffffffffffffffff160217905550611bdd6040805190810160405280600b81526020017f6574685f6d61696e6e65740000000000000000000000000000000000000000008152506125a6565b60019050611fb1565b6000611c0573c03a2615d5efaf5f49f60b7bb6583eaec212fdf1611b1a565b1115611ca65773c03a2615d5efaf5f49f60b7bb6583eaec212fdf16000806101000a81548173ffffffffffffffffffffffffffffffffffffffff021916908373ffffffffffffffffffffffffffffffffffffffff160217905550611c9d6040805190810160405280600c81526020017f6574685f726f707374656e3300000000000000000000000000000000000000008152506125a6565b60019050611fb1565b6000611cc573b7a07bcf2ba2f2703b24c0691b5278999c59ac7e611b1a565b1115611d665773b7a07bcf2ba2f2703b24c0691b5278999c59ac7e6000806101000a81548173ffffffffffffffffffffffffffffffffffffffff021916908373ffffffffffffffffffffffffffffffffffffffff160217905550611d5d6040805190810160405280600981526020017f6574685f6b6f76616e00000000000000000000000000000000000000000000008152506125a6565b60019050611fb1565b6000611d8573146500cfd35b22e4a392fe0adc06de1a1368ed48611b1a565b1115611e265773146500cfd35b22e4a392fe0adc06de1a1368ed486000806101000a81548173ffffffffffffffffffffffffffffffffffffffff021916908373ffffffffffffffffffffffffffffffffffffffff160217905550611e1d6040805190810160405280600b81526020017f6574685f72696e6b6562790000000000000000000000000000000000000000008152506125a6565b60019050611fb1565b6000611e45736f485c8bf6fc43ea212e93bbf8ce046c7f1cb475611b1a565b1115611ea857736f485c8bf6fc43ea212e93bbf8ce046c7f1cb4756000806101000a81548173ffffffffffffffffffffffffffffffffffffffff021916908373ffffffffffffffffffffffffffffffffffffffff16021790555060019050611fb1565b6000611ec77320e12a1f859b3feae5fb2a0a32c18f5a65555bbf611b1a565b1115611f2a577320e12a1f859b3feae5fb2a0a32c18f5a65555bbf6000806101000a81548173ffffffffffffffffffffffffffffffffffffffff021916908373ffffffffffffffffffffffffffffffffffffffff16021790555060019050611fb1565b6000611f497351efaf4c8b3c9afbd5ab9f4bbc82784ab6ef8faa611b1a565b1115611fac577351efaf4c8b3c9afbd5ab9f4bbc82784ab6ef8faa6000806101000a81548173ffffffffffffffffffffffffffffffffffffffff021916908373ffffffffffffffffffffffffffffffffffffffff16021790555060019050611fb1565b600090505b919050565b6000611fc38260006125c0565b9050919050565b60008183811515611fd757fe5b04905092915050565b6000806000841415611ff55760009150612014565b828402905082848281151561200657fe5b0414151561201057fe5b8091505b5092915050565b60003073ffffffffffffffffffffffffffffffffffffffff1631905090565b60606000806060600080861415612088576040805190810160405280600181526020017f30000000000000000000000000000000000000000000000000000000000000008152509450612188565b8593505b6000841415156120b2578280600101935050600a848115156120aa57fe5b04935061208c565b826040519080825280601f01601f1916602001820160405280156120e55781602001602082028038833980820191505090505b5091506001830390505b60008614151561218457600a8681151561210557fe5b066030017f01000000000000000000000000000000000000000000000000000000000000000282828060019003935081518110151561214057fe5b9060200101907effffffffffffffffffffffffffffffffffffffffffffffffffffffffffffff1916908160001a905350600a8681151561217c57fe5b0495506120ef565b8194505b50505050919050565b6060806060806060806060806000808e98508d97508c96508b95508a94508451865188518a518c51010101016040519080825280601f01601f1916602001820160405280156121ef5781602001602082028038833980820191505090505b50935083925060009150600090505b88518110156122b157888181518110151561221557fe5b9060200101517f010000000000000000000000000000000000000000000000000000000000000090047f010000000000000000000000000000000000000000000000000000000000000002838380600101945081518110151561227457fe5b9060200101907effffffffffffffffffffffffffffffffffffffffffffffffffffffffffffff1916908160001a90535080806001019150506121fe565b600090505b87518110156123695787818151811015156122cd57fe5b9060200101517f010000000000000000000000000000000000000000000000000000000000000090047f010000000000000000000000000000000000000000000000000000000000000002838380600101945081518110151561232c57fe5b9060200101907effffffffffffffffffffffffffffffffffffffffffffffffffffffffffffff1916908160001a90535080806001019150506122b6565b600090505b865181101561242157868181518110151561238557fe5b9060200101517f010000000000000000000000000000000000000000000000000000000000000090047f01000000000000000000000000000000000000000000000000000000000000000283838060010194508151811015156123e457fe5b9060200101907effffffffffffffffffffffffffffffffffffffffffffffffffffffffffffff1916908160001a905350808060010191505061236e565b600090505b85518110156124d957858181518110151561243d57fe5b9060200101517f010000000000000000000000000000000000000000000000000000000000000090047f010000000000000000000000000000000000000000000000000000000000000002838380600101945081518110151561249c57fe5b9060200101907effffffffffffffffffffffffffffffffffffffffffffffffffffffffffffff1916908160001a9053508080600101915050612426565b600090505b84518110156125915784818151811015156124f557fe5b9060200101517f010000000000000000000000000000000000000000000000000000000000000090047f010000000000000000000000000000000000000000000000000000000000000002838380600101945081518110151561255457fe5b9060200101907effffffffffffffffffffffffffffffffffffffffffffffffffffffffffffff1916908160001a90535080806001019150506124de565b82995050505050505050505095945050505050565b80600290805190602001906125bc9291906128fa565b5050565b6000606060008060008693506000925060009150600090505b83518110156128955760307f010000000000000000000000000000000000000000000000000000000000000002848281518110151561261457fe5b9060200101517f010000000000000000000000000000000000000000000000000000000000000090047f0100000000000000000000000000000000000000000000000000000000000000027effffffffffffffffffffffffffffffffffffffffffffffffffffffffffffff19161015801561272c575060397f01000000000000000000000000000000000000000000000000000000000000000284828151811015156126bc57fe5b9060200101517f010000000000000000000000000000000000000000000000000000000000000090047f0100000000000000000000000000000000000000000000000000000000000000027effffffffffffffffffffffffffffffffffffffffffffffffffffffffffffff191611155b156127dd57811561274f57600086141561274557612895565b8580600190039650505b600a830292506030848281518110151561276557fe5b9060200101517f010000000000000000000000000000000000000000000000000000000000000090047f0100000000000000000000000000000000000000000000000000000000000000027f010000000000000000000000000000000000000000000000000000000000000090040383019250612888565b602e7f010000000000000000000000000000000000000000000000000000000000000002848281518110151561280f57fe5b9060200101517f010000000000000000000000000000000000000000000000000000000000000090047f0100000000000000000000000000000000000000000000000000000000000000027effffffffffffffffffffffffffffffffffffffffffffffffffffffffffffff1916141561288757600191505b5b80806001019150506125d9565b60008611156128a75785600a0a830292505b8294505050505092915050565b60a060405190810160405280600073ffffffffffffffffffffffffffffffffffffffff168152602001600081526020016000815260200160008152602001600081525090565b828054600181600116156101000203166002900490600052602060002090601f016020900481019282601f1061293b57805160ff1916838001178555612969565b82800160010185558215612969579182015b8281111561296857825182559160200191906001019061294d565b5b509050612976919061297a565b5090565b61299c91905b80821115612998576000816000905550600101612980565b5090565b905600a165627a7a72305820ee4eaafb0a21cf669c29fc58002a425d03f9ffccba888c0fd98d8467438c2ef00029",
  "source": "pragma solidity ^0.4.4;\n\nimport \"./oraclizeAPI.sol\";\n\nimport \"./Ownable.sol\";\nimport \"./SafeMath.sol\";\n\ncontract Dice is usingOraclize, Ownable {\n  using SafeMath for uint256;\n\n  uint256 constant INVALID_ROLL = 0;\n\n  // Depends on slider\n  uint256 constant MIN_ROLL = 1;\n  uint256 constant MAX_ROLL = 100;\n  bytes32 constant DEFAULT_BYTES32 = 0x0000000000000000000000000000000000000000000000000000000000000000;\n\n  // This governs how much gas we'll have for the oraclize callback\n  uint256 constant ORACLIZE_GAS_COST = 500000;\n\n  struct GameData {\n    address player;\n    uint256 odds; // represents the roll under which all winning rolls must lie\n    uint256 trueWager;\n    uint256 roll; // only populated when game is complete\n    uint256 maxProfit; // max profit calculated at roll time\n  }\n\n  // TODO: Un-public this after I'm done debugging\n  mapping(bytes32 => GameData) public _queryToGameData;\n\n  // For display purposes only\n  uint256 public completedGames = 0;\n\n  event RollCompleted(\n    address indexed player,\n    uint256 trueWager,\n    uint256 odds,\n    uint256 roll,\n    uint256 totalPayout\n  );\n\n  event RollSubmitted(\n    address indexed player,\n    uint256 odds,\n    uint256 trueWager\n  );\n\n  event PlayerPaidOut(\n    address indexed player,\n    uint256 payout\n  );\n\n  constructor() public {}\n\n  ////////////////\n  // ADMIN ACTIONS\n  ////////////////\n\n  function withdrawBalance() external onlyOwner {\n    uint256 balance = address(this).balance;\n\n    // No withdrawal necessary if <= 0 balance\n    require(balance > 0);\n\n    msg.sender.transfer(balance);\n  }\n\n  // TODO: Access restrict this to whitelist\n  function addBalance() external payable {\n  }\n\n  ///////////////\n  // USER ACTIONS\n  ///////////////\n\n  // NOTE: Currently 10% of contract balance. Can be tuned\n  function getMaxProfit() public view returns(uint256) {\n    return address(this).balance / 10;\n  }\n\n  function rollDice(uint256 odds) external payable {\n    uint256 queryPrice = oraclize_getPrice(\"URL\");\n\n    // player's wager\n    require(msg.value > queryPrice);\n    uint256 wagerAfterQuery = msg.value.sub(queryPrice);\n    uint256 fee = _computeRollFee(wagerAfterQuery);\n    uint256 trueWager = wagerAfterQuery.sub(fee);\n\n    // NOTE: Can probably simplify this to something static\n    string memory queryStr = _getQueryStr(MIN_ROLL, MAX_ROLL);\n\n    // TODO: When we need to encrypt random.org encryption key, this will need to become a 'nested' query\n    bytes32 qId = oraclize_query(\"URL\", queryStr, ORACLIZE_GAS_COST);\n\n    emit RollSubmitted(msg.sender, odds, trueWager);\n\n    _queryToGameData[qId] = GameData(\n      msg.sender,\n      odds,\n      trueWager,\n      INVALID_ROLL,\n      getMaxProfit()\n    );\n  }\n\n  // NOTE: 1%, can be modified!\n  function _computeRollFee(uint256 wagerAfterQuery) private pure returns (uint256) {\n    return SafeMath.div(wagerAfterQuery, 100);\n  }\n\n  // NOTE: Doesn't use API key so that we don't have to do all the fancy encryption stuff.\n  function _getQueryStr(uint256 min, uint256 max) internal returns(string) {\n    // TODO: encrypted query...\n    //string memory newStr = strConcat(\"[URL] ['json(https://api.random.org/json-rpc/1/invoke).result.random[\\\"serialNumber\\\",\\\"data\\\"]', '\\\\n{\\\"jsonrpc\\\":\\\"2.0\\\",\\\"method\\\":\\\"generateSignedIntegers\\\",\\\"params\\\":{\\\"apiKey\\\":${[decrypt] BKg3TCs7lkzNr1kR6pxjPCM2SOejcFojUPMTOsBkC/47HHPf1sP2oxVLTjNBu+slR9SgZyqDtjVOV5Yzg12iUkbubp0DpcjCEdeJTHnGwC6gD729GUVoGvo96huxwRoZlCjYO80rWq2WGYoR/LC3WampDuvv2Bo=},\\\"n\\\":1,\\\"min\\\":\", uint2str(min), \"\\\"max\\\"\": uint2str(max), \"\\\"replacement\\\":true,\\\"base\\\":10${[identity] \\\"}\\\"},\\\"id\\\":1${[identity] \\\"}\\\"}']\")\n\n    return strConcat(\"https://www.random.org/integers/?num=1&min=\", uint2str(min), \"&max=\", uint2str(max), \"&col=1&base=10&format=plain&rnd=new\");\n  }\n\n  function __callback(bytes32 qId, string result, bytes proof) public {\n    // Must be called by oraclize\n    require(msg.sender == oraclize_cbAddress());\n\n    GameData memory game = _queryToGameData[qId];\n\n    // Game must not already have a roll associated with it\n    require(game.roll == INVALID_ROLL);\n\n    // TODO: Check authenticity proof\n\n    // Payout player\n    uint256 roll = _resultToRoll(result);\n    uint256 payout = _calculatePayout(qId, roll);\n    address player = game.player;\n    if (payout > 0) {\n      player.transfer(payout);\n      emit PlayerPaidOut(player, payout);\n    }\n\n    // TODO: Delete game in the future to save space\n    game.roll = roll;\n\n    // game completed!\n    completedGames = completedGames.add(1);\n    emit RollCompleted(player, game.trueWager, game.odds, roll, payout);\n  }\n\n  function _calculatePayout(bytes32 qId, uint256 roll) internal view returns(uint256) {\n    GameData memory game = _queryToGameData[qId];\n\n    uint256 odds = game.odds;\n    if (roll >= odds) {\n      return 0;\n    } else {\n      uint256 wager = game.trueWager;\n      uint256 maxProfit = game.maxProfit;\n\n      // payout = wager + winningsMultiple * wager\n      // winnings = (100 - x) / x\n      uint256 probabilityOdds = odds.sub(1);\n      uint256 invOdds = MAX_ROLL.sub(probabilityOdds);\n      uint256 winningsMultiple = invOdds.div(probabilityOdds);\n      uint256 winnings = winningsMultiple.mul(wager);\n      uint256 defaultWinnings = wager.add(winnings);\n\n      uint256 availableBalance = _getAvailableBalance() ;\n      if (defaultWinnings > availableBalance) {\n        return availableBalance;\n      }\n\n      else if (winnings > maxProfit) {\n        return wager.add(maxProfit);\n      }\n\n      else {\n        return defaultWinnings;\n      }\n    }\n  }\n\n  // NOTE: Set to less than total balance so contract balance can't ever be drained\n  function _getAvailableBalance() internal returns(uint256) {\n    return address(this).balance;\n  }\n\n  function _resultToRoll(string result) internal returns(uint256) {\n    return parseInt(result);\n  }\n}\n",
  "sourcePath": "/Users/lakshmansankar/src/etherdice/contracts/Dice.sol",
  "compiler": {
    "name": "solc",
    "version": "0.4.23+commit.124ca40d.Emscripten.clang"
  },
  "schemaVersion": "2.0.0",
  "updatedAt": "2018-05-09T19:54:51.479Z"
}