{
  "contractName": "Dice",
  "abi": [
    {
      "constant": true,
      "inputs": [
        {
          "name": "",
          "type": "address"
        }
      ],
      "name": "_playerToCurrentQuery",
      "outputs": [
        {
          "name": "",
          "type": "bytes32"
        }
      ],
      "payable": false,
      "stateMutability": "view",
      "type": "function"
    },
    {
      "constant": true,
      "inputs": [],
      "name": "completedGames",
      "outputs": [
        {
          "name": "",
          "type": "uint256"
        }
      ],
      "payable": false,
      "stateMutability": "view",
      "type": "function"
    },
    {
      "constant": true,
      "inputs": [
        {
          "name": "",
          "type": "bytes32"
        }
      ],
      "name": "_queryToGameData",
      "outputs": [
        {
          "name": "player",
          "type": "address"
        },
        {
          "name": "odds",
          "type": "uint256"
        },
        {
          "name": "trueWager",
          "type": "uint256"
        },
        {
          "name": "roll",
          "type": "uint256"
        },
        {
          "name": "maxProfit",
          "type": "uint256"
        },
        {
          "name": "active",
          "type": "bool"
        }
      ],
      "payable": false,
      "stateMutability": "view",
      "type": "function"
    },
    {
      "constant": true,
      "inputs": [],
      "name": "owner",
      "outputs": [
        {
          "name": "",
          "type": "address"
        }
      ],
      "payable": false,
      "stateMutability": "view",
      "type": "function"
    },
    {
      "constant": true,
      "inputs": [],
      "name": "lastResult",
      "outputs": [
        {
          "name": "",
          "type": "string"
        }
      ],
      "payable": false,
      "stateMutability": "view",
      "type": "function"
    },
    {
      "constant": true,
      "inputs": [],
      "name": "lastPayout",
      "outputs": [
        {
          "name": "",
          "type": "uint256"
        }
      ],
      "payable": false,
      "stateMutability": "view",
      "type": "function"
    },
    {
      "constant": true,
      "inputs": [
        {
          "name": "",
          "type": "address"
        }
      ],
      "name": "_playerToPayouts",
      "outputs": [
        {
          "name": "",
          "type": "uint256"
        }
      ],
      "payable": false,
      "stateMutability": "view",
      "type": "function"
    },
    {
      "constant": true,
      "inputs": [],
      "name": "lastQuery",
      "outputs": [
        {
          "name": "",
          "type": "string"
        }
      ],
      "payable": false,
      "stateMutability": "view",
      "type": "function"
    },
    {
      "constant": false,
      "inputs": [
        {
          "name": "newOwner",
          "type": "address"
        }
      ],
      "name": "transferOwnership",
      "outputs": [],
      "payable": false,
      "stateMutability": "nonpayable",
      "type": "function"
    },
    {
      "inputs": [],
      "payable": false,
      "stateMutability": "nonpayable",
      "type": "constructor"
    },
    {
      "anonymous": false,
      "inputs": [
        {
          "indexed": true,
          "name": "player",
          "type": "address"
        },
        {
          "indexed": false,
          "name": "trueWager",
          "type": "uint256"
        },
        {
          "indexed": false,
          "name": "odds",
          "type": "uint256"
        },
        {
          "indexed": false,
          "name": "roll",
          "type": "uint256"
        },
        {
          "indexed": false,
          "name": "totalPayout",
          "type": "uint256"
        }
      ],
      "name": "RollCompleted",
      "type": "event"
    },
    {
      "anonymous": false,
      "inputs": [
        {
          "indexed": true,
          "name": "player",
          "type": "address"
        },
        {
          "indexed": false,
          "name": "odds",
          "type": "uint256"
        },
        {
          "indexed": false,
          "name": "trueWager",
          "type": "uint256"
        }
      ],
      "name": "RollSubmitted",
      "type": "event"
    },
    {
      "anonymous": false,
      "inputs": [
        {
          "indexed": true,
          "name": "player",
          "type": "address"
        }
      ],
      "name": "RollCancelled",
      "type": "event"
    },
    {
      "anonymous": false,
      "inputs": [
        {
          "indexed": true,
          "name": "player",
          "type": "address"
        },
        {
          "indexed": false,
          "name": "payout",
          "type": "uint256"
        }
      ],
      "name": "PlayerPaidOut",
      "type": "event"
    },
    {
      "anonymous": false,
      "inputs": [
        {
          "indexed": true,
          "name": "previousOwner",
          "type": "address"
        },
        {
          "indexed": true,
          "name": "newOwner",
          "type": "address"
        }
      ],
      "name": "OwnershipTransferred",
      "type": "event"
    },
    {
      "constant": false,
      "inputs": [],
      "name": "withdrawBalance",
      "outputs": [],
      "payable": false,
      "stateMutability": "nonpayable",
      "type": "function"
    },
    {
      "constant": false,
      "inputs": [],
      "name": "addBalance",
      "outputs": [],
      "payable": true,
      "stateMutability": "payable",
      "type": "function"
    },
    {
      "constant": true,
      "inputs": [],
      "name": "getMaxProfit",
      "outputs": [
        {
          "name": "",
          "type": "uint256"
        }
      ],
      "payable": false,
      "stateMutability": "view",
      "type": "function"
    },
    {
      "constant": false,
      "inputs": [
        {
          "name": "odds",
          "type": "uint256"
        }
      ],
      "name": "rollDice",
      "outputs": [],
      "payable": true,
      "stateMutability": "payable",
      "type": "function"
    },
    {
      "constant": false,
      "inputs": [
        {
          "name": "myid",
          "type": "bytes32"
        },
        {
          "name": "result",
          "type": "string"
        }
      ],
      "name": "__callback",
      "outputs": [],
      "payable": false,
      "stateMutability": "nonpayable",
      "type": "function"
    },
    {
      "constant": false,
      "inputs": [
        {
          "name": "qId",
          "type": "bytes32"
        },
        {
          "name": "result",
          "type": "string"
        },
        {
          "name": "proof",
          "type": "bytes"
        }
      ],
      "name": "__callback",
      "outputs": [],
      "payable": false,
      "stateMutability": "nonpayable",
      "type": "function"
    },
    {
      "constant": true,
      "inputs": [],
      "name": "hasActiveRoll",
      "outputs": [
        {
          "name": "",
          "type": "bool"
        }
      ],
      "payable": false,
      "stateMutability": "view",
      "type": "function"
    },
    {
      "constant": false,
      "inputs": [],
      "name": "cancelActiveRoll",
      "outputs": [],
      "payable": false,
      "stateMutability": "nonpayable",
      "type": "function"
    }
  ],
  "bytecode": "0x60806040526000600c5534801561001557600080fd5b5033600560006101000a81548173ffffffffffffffffffffffffffffffffffffffff021916908373ffffffffffffffffffffffffffffffffffffffff160217905550613241806100666000396000f3006080604052600436106100f1576000357c0100000000000000000000000000000000000000000000000000000000900463ffffffff1680630512ca67146100f657806327dc297e1461012557806338bbfa501461019c5780635beea056146102595780635edfd788146102b85780635f5f4443146102e35780635fd8c7101461037b57806366164001146103925780638da5cb5b146103a9578063abcc11d814610400578063acfff37714610490578063b163cc38146104b0578063b9db102a146104ba578063bc7b0302146104e5578063dc33854c1461053c578063ec062ac0146105cc578063f2fde38b146105f7575b600080fd5b34801561010257600080fd5b5061010b61063a565b604051808215151515815260200191505060405180910390f35b34801561013157600080fd5b5061019a6004803603810190808035600019169060200190929190803590602001908201803590602001908080601f016020809104026020016040519081016040528093929190818152602001838380828437820191505050505050919291929050505061068f565b005b3480156101a857600080fd5b506102576004803603810190808035600019169060200190929190803590602001908201803590602001908080601f0160208091040260200160405190810160405280939291908181526020018383808284378201915050505050509192919290803590602001908201803590602001908080601f01602080910402602001604051908101604052809392919081815260200183838082843782019150505050505091929192905050506106d2565b005b34801561026557600080fd5b5061029a600480360381019080803573ffffffffffffffffffffffffffffffffffffffff169060200190929190505050610a14565b60405180826000191660001916815260200191505060405180910390f35b3480156102c457600080fd5b506102cd610a2c565b6040518082815260200191505060405180910390f35b3480156102ef57600080fd5b506103126004803603810190808035600019169060200190929190505050610a32565b604051808773ffffffffffffffffffffffffffffffffffffffff1673ffffffffffffffffffffffffffffffffffffffff16815260200186815260200185815260200184815260200183815260200182151515158152602001965050505050505060405180910390f35b34801561038757600080fd5b50610390610a9b565b005b34801561039e57600080fd5b506103a7610b6c565b005b3480156103b557600080fd5b506103be610ddd565b604051808273ffffffffffffffffffffffffffffffffffffffff1673ffffffffffffffffffffffffffffffffffffffff16815260200191505060405180910390f35b34801561040c57600080fd5b50610415610e03565b6040518080602001828103825283818151815260200191508051906020019080838360005b8381101561045557808201518184015260208101905061043a565b50505050905090810190601f1680156104825780820380516001836020036101000a031916815260200191505b509250505060405180910390f35b6104ae60048036038101908080359060200190929190505050610ea1565b005b6104b861112f565b005b3480156104c657600080fd5b506104cf611131565b6040518082815260200191505060405180910390f35b3480156104f157600080fd5b50610526600480360381019080803573ffffffffffffffffffffffffffffffffffffffff169060200190929190505050611137565b6040518082815260200191505060405180910390f35b34801561054857600080fd5b5061055161114f565b6040518080602001828103825283818151815260200191508051906020019080838360005b83811015610591578082015181840152602081019050610576565b50505050905090810190601f1680156105be5780820380516001836020036101000a031916815260200191505b509250505060405180910390f35b3480156105d857600080fd5b506105e16111ed565b6040518082815260200191505060405180910390f35b34801561060357600080fd5b50610638600480360381019080803573ffffffffffffffffffffffffffffffffffffffff169060200190929190505050611218565b005b60008060010260001916600760003373ffffffffffffffffffffffffffffffffffffffff1673ffffffffffffffffffffffffffffffffffffffff16815260200190815260200160002054600019161415905090565b6106ce828260006040519080825280601f01601f1916602001820160405280156106c85781602001602082028038833980820191505090505b506106d2565b5050565b6106da613121565b60008060006106e7611370565b73ffffffffffffffffffffffffffffffffffffffff163373ffffffffffffffffffffffffffffffffffffffff1614151561072057600080fd5b60066000886000191660001916815260200190815260200160002060c060405190810160405290816000820160009054906101000a900473ffffffffffffffffffffffffffffffffffffffff1673ffffffffffffffffffffffffffffffffffffffff1673ffffffffffffffffffffffffffffffffffffffff168152602001600182015481526020016002820154815260200160038201548152602001600482015481526020016005820160009054906101000a900460ff16151515158152505093508360a0015115156107f257600080fd5b85600a9080519060200190610808929190613170565b50610812866116ce565b925061081e87846116e0565b91508360000151905060008211156108c6578073ffffffffffffffffffffffffffffffffffffffff166108fc839081150290604051600060405180830381858888f19350505050158015610876573d6000803e3d6000fd5b508073ffffffffffffffffffffffffffffffffffffffff167fc458bc9f00c29ca11ecdfa3e970a6b5fe084d6cb81b95e63c9bb2eba922bf473836040518082815260200191505060405180910390a25b81600b819055508284606001818152505060008460a00190151590811515815250506000600102600760008373ffffffffffffffffffffffffffffffffffffffff1673ffffffffffffffffffffffffffffffffffffffff168152602001908152602001600020816000191690555081600860008373ffffffffffffffffffffffffffffffffffffffff1673ffffffffffffffffffffffffffffffffffffffff168152602001908152602001600020600082825401925050819055506109976001600c5461189c90919063ffffffff16565b600c819055508073ffffffffffffffffffffffffffffffffffffffff167faa22b2eab655d6c13d7a44a681f8d54a52089858587bb455ad28ad0b9f33a55f8560400151866020015186866040518085815260200184815260200183815260200182815260200194505050505060405180910390a250505050505050565b60076020528060005260406000206000915090505481565b600c5481565b60066020528060005260406000206000915090508060000160009054906101000a900473ffffffffffffffffffffffffffffffffffffffff16908060010154908060020154908060030154908060040154908060050160009054906101000a900460ff16905086565b6000600560009054906101000a900473ffffffffffffffffffffffffffffffffffffffff1673ffffffffffffffffffffffffffffffffffffffff163373ffffffffffffffffffffffffffffffffffffffff16141515610af957600080fd5b3073ffffffffffffffffffffffffffffffffffffffff16319050600081111515610b2257600080fd5b3373ffffffffffffffffffffffffffffffffffffffff166108fc829081150290604051600060405180830381858888f19350505050158015610b68573d6000803e3d6000fd5b5050565b600080600080600760003373ffffffffffffffffffffffffffffffffffffffff1673ffffffffffffffffffffffffffffffffffffffff168152602001908152602001600020549350600060010260001916846000191614151515610bcf57600080fd5b60066000856000191660001916815260200190815260200160002060000160009054906101000a900473ffffffffffffffffffffffffffffffffffffffff1692503373ffffffffffffffffffffffffffffffffffffffff168373ffffffffffffffffffffffffffffffffffffffff16141515610c4a57600080fd5b600060066000866000191660001916815260200190815260200160002060050160006101000a81548160ff0219169083151502179055506000600102600760003373ffffffffffffffffffffffffffffffffffffffff1673ffffffffffffffffffffffffffffffffffffffff1681526020019081526020016000208160001916905550600660008560001916600019168152602001908152602001600020600201549150610cf66118ba565b905080821115610d4c578273ffffffffffffffffffffffffffffffffffffffff166108fc829081150290604051600060405180830381858888f19350505050158015610d46573d6000803e3d6000fd5b50610d94565b8273ffffffffffffffffffffffffffffffffffffffff166108fc839081150290604051600060405180830381858888f19350505050158015610d92573d6000803e3d6000fd5b505b8273ffffffffffffffffffffffffffffffffffffffff167f140834e31d7feb508f9b395d1f939d8365085557d375b70fbdd291a2b6fcdd0f60405160405180910390a250505050565b600560009054906101000a900473ffffffffffffffffffffffffffffffffffffffff1681565b600a8054600181600116156101000203166002900480601f016020809104026020016040519081016040528092919081815260200182805460018160011615610100020316600290048015610e995780601f10610e6e57610100808354040283529160200191610e99565b820191906000526020600020905b815481529060010190602001808311610e7c57829003601f168201915b505050505081565b60008060008060606000610eb361063a565b151515610ebf57600080fd5b610efd6040805190810160405280600381526020017f55524c00000000000000000000000000000000000000000000000000000000008152506118e5565b95508534111515610f0d57600080fd5b8534039450610f1b85611cb5565b93508385039250610f2e60016064611cc9565b9150610f736040805190810160405280600381526020017f55524c0000000000000000000000000000000000000000000000000000000000815250836207a120611ddd565b90508160099080519060200190610f8b929190613170565b503373ffffffffffffffffffffffffffffffffffffffff167feb572415c627b25eebc7b29cbbef1a9608184cd772f28e749b5859267348ad078885604051808381526020018281526020019250505060405180910390a260c0604051908101604052803373ffffffffffffffffffffffffffffffffffffffff168152602001888152602001848152602001600081526020016110256111ed565b81526020016001151581525060066000836000191660001916815260200190815260200160002060008201518160000160006101000a81548173ffffffffffffffffffffffffffffffffffffffff021916908373ffffffffffffffffffffffffffffffffffffffff1602179055506020820151816001015560408201518160020155606082015181600301556080820151816004015560a08201518160050160006101000a81548160ff02191690831515021790555090505080600760003373ffffffffffffffffffffffffffffffffffffffff1673ffffffffffffffffffffffffffffffffffffffff168152602001908152602001600020816000191690555050505050505050565b565b600b5481565b60086020528060005260406000206000915090505481565b60098054600181600116156101000203166002900480601f0160208091040260200160405190810160405280929190818152602001828054600181600116156101000203166002900480156111e55780601f106111ba576101008083540402835291602001916111e5565b820191906000526020600020905b8154815290600101906020018083116111c857829003601f168201915b505050505081565b6000600a3073ffffffffffffffffffffffffffffffffffffffff163181151561121257fe5b04905090565b600560009054906101000a900473ffffffffffffffffffffffffffffffffffffffff1673ffffffffffffffffffffffffffffffffffffffff163373ffffffffffffffffffffffffffffffffffffffff1614151561127457600080fd5b600073ffffffffffffffffffffffffffffffffffffffff168173ffffffffffffffffffffffffffffffffffffffff16141515156112b057600080fd5b8073ffffffffffffffffffffffffffffffffffffffff16600560009054906101000a900473ffffffffffffffffffffffffffffffffffffffff1673ffffffffffffffffffffffffffffffffffffffff167f8be0079c531659141344cd1fd0a4f28419497f9722a3daafe3b4186f6b6457e060405160405180910390a380600560006101000a81548173ffffffffffffffffffffffffffffffffffffffff021916908373ffffffffffffffffffffffffffffffffffffffff16021790555050565b6000806000809054906101000a900473ffffffffffffffffffffffffffffffffffffffff1673ffffffffffffffffffffffffffffffffffffffff1614806113e0575060006113de6000809054906101000a900473ffffffffffffffffffffffffffffffffffffffff1661238d565b145b156113f1576113ef6000612398565b505b6000809054906101000a900473ffffffffffffffffffffffffffffffffffffffff1673ffffffffffffffffffffffffffffffffffffffff166338cc48316040518163ffffffff167c0100000000000000000000000000000000000000000000000000000000028152600401602060405180830381600087803b15801561147657600080fd5b505af115801561148a573d6000803e3d6000fd5b505050506040513d60208110156114a057600080fd5b810190808051906020019092919050505073ffffffffffffffffffffffffffffffffffffffff16600160009054906101000a900473ffffffffffffffffffffffffffffffffffffffff1673ffffffffffffffffffffffffffffffffffffffff16141515611608576000809054906101000a900473ffffffffffffffffffffffffffffffffffffffff1673ffffffffffffffffffffffffffffffffffffffff166338cc48316040518163ffffffff167c0100000000000000000000000000000000000000000000000000000000028152600401602060405180830381600087803b15801561158c57600080fd5b505af11580156115a0573d6000803e3d6000fd5b505050506040513d60208110156115b657600080fd5b8101908080519060200190929190505050600160006101000a81548173ffffffffffffffffffffffffffffffffffffffff021916908373ffffffffffffffffffffffffffffffffffffffff1602179055505b600160009054906101000a900473ffffffffffffffffffffffffffffffffffffffff1673ffffffffffffffffffffffffffffffffffffffff1663c281d19e6040518163ffffffff167c0100000000000000000000000000000000000000000000000000000000028152600401602060405180830381600087803b15801561168e57600080fd5b505af11580156116a2573d6000803e3d6000fd5b505050506040513d60208110156116b857600080fd5b8101908080519060200190929190505050905090565b60006116d982612829565b9050919050565b60006116ea613121565b6000806000806000806000806000600660008e6000191660001916815260200190815260200160002060c060405190810160405290816000820160009054906101000a900473ffffffffffffffffffffffffffffffffffffffff1673ffffffffffffffffffffffffffffffffffffffff1673ffffffffffffffffffffffffffffffffffffffff168152602001600182015481526020016002820154815260200160038201548152602001600482015481526020016005820160009054906101000a900460ff161515151581525050995089602001519850888c1015156117d35760009a5061188c565b89604001519750896080015196506117f560018a61283d90919063ffffffff16565b955061180b86606461283d90919063ffffffff16565b9450611820868661285690919063ffffffff16565b9350611835888561286c90919063ffffffff16565b925061184a838961189c90919063ffffffff16565b91506118546118ba565b90508082111561186657809a5061188c565b8683111561188857611881878961189c90919063ffffffff16565b9a5061188c565b819a505b5050505050505050505092915050565b60008082840190508381101515156118b057fe5b8091505092915050565b600060023073ffffffffffffffffffffffffffffffffffffffff16318115156118df57fe5b04905090565b6000806000809054906101000a900473ffffffffffffffffffffffffffffffffffffffff1673ffffffffffffffffffffffffffffffffffffffff161480611955575060006119536000809054906101000a900473ffffffffffffffffffffffffffffffffffffffff1661238d565b145b15611966576119646000612398565b505b6000809054906101000a900473ffffffffffffffffffffffffffffffffffffffff1673ffffffffffffffffffffffffffffffffffffffff166338cc48316040518163ffffffff167c0100000000000000000000000000000000000000000000000000000000028152600401602060405180830381600087803b1580156119eb57600080fd5b505af11580156119ff573d6000803e3d6000fd5b505050506040513d6020811015611a1557600080fd5b810190808051906020019092919050505073ffffffffffffffffffffffffffffffffffffffff16600160009054906101000a900473ffffffffffffffffffffffffffffffffffffffff1673ffffffffffffffffffffffffffffffffffffffff16141515611b7d576000809054906101000a900473ffffffffffffffffffffffffffffffffffffffff1673ffffffffffffffffffffffffffffffffffffffff166338cc48316040518163ffffffff167c0100000000000000000000000000000000000000000000000000000000028152600401602060405180830381600087803b158015611b0157600080fd5b505af1158015611b15573d6000803e3d6000fd5b505050506040513d6020811015611b2b57600080fd5b8101908080519060200190929190505050600160006101000a81548173ffffffffffffffffffffffffffffffffffffffff021916908373ffffffffffffffffffffffffffffffffffffffff1602179055505b600160009054906101000a900473ffffffffffffffffffffffffffffffffffffffff1673ffffffffffffffffffffffffffffffffffffffff1663524f3889836040518263ffffffff167c01000000000000000000000000000000000000000000000000000000000281526004018080602001828103825283818151815260200191508051906020019080838360005b83811015611c27578082015181840152602081019050611c0c565b50505050905090810190601f168015611c545780820380516001836020036101000a031916815260200191505b5092505050602060405180830381600087803b158015611c7357600080fd5b505af1158015611c87573d6000803e3d6000fd5b505050506040513d6020811015611c9d57600080fd5b81019080805190602001909291905050509050919050565b6000611cc2826064612856565b9050919050565b6060611dd5606060405190810160405280602b81526020017f68747470733a2f2f7777772e72616e646f6d2e6f72672f696e7465676572732f81526020017f3f6e756d3d31266d696e3d000000000000000000000000000000000000000000815250611d34856128a7565b6040805190810160405280600581526020017f266d61783d000000000000000000000000000000000000000000000000000000815250611d73866128a7565b606060405190810160405280602381526020017f26636f6c3d3126626173653d313026666f726d61743d706c61696e26726e643d81526020017f6e657700000000000000000000000000000000000000000000000000000000008152506129fe565b905092915050565b60008060008060009054906101000a900473ffffffffffffffffffffffffffffffffffffffff1673ffffffffffffffffffffffffffffffffffffffff161480611e4f57506000611e4d6000809054906101000a900473ffffffffffffffffffffffffffffffffffffffff1661238d565b145b15611e6057611e5e6000612398565b505b6000809054906101000a900473ffffffffffffffffffffffffffffffffffffffff1673ffffffffffffffffffffffffffffffffffffffff166338cc48316040518163ffffffff167c0100000000000000000000000000000000000000000000000000000000028152600401602060405180830381600087803b158015611ee557600080fd5b505af1158015611ef9573d6000803e3d6000fd5b505050506040513d6020811015611f0f57600080fd5b810190808051906020019092919050505073ffffffffffffffffffffffffffffffffffffffff16600160009054906101000a900473ffffffffffffffffffffffffffffffffffffffff1673ffffffffffffffffffffffffffffffffffffffff16141515612077576000809054906101000a900473ffffffffffffffffffffffffffffffffffffffff1673ffffffffffffffffffffffffffffffffffffffff166338cc48316040518163ffffffff167c0100000000000000000000000000000000000000000000000000000000028152600401602060405180830381600087803b158015611ffb57600080fd5b505af115801561200f573d6000803e3d6000fd5b505050506040513d602081101561202557600080fd5b8101908080519060200190929190505050600160006101000a81548173ffffffffffffffffffffffffffffffffffffffff021916908373ffffffffffffffffffffffffffffffffffffffff1602179055505b600160009054906101000a900473ffffffffffffffffffffffffffffffffffffffff1673ffffffffffffffffffffffffffffffffffffffff16632ef3accc86856040518363ffffffff167c01000000000000000000000000000000000000000000000000000000000281526004018080602001838152602001828103825284818151815260200191508051906020019080838360005b8381101561212857808201518184015260208101905061210d565b50505050905090810190601f1680156121555780820380516001836020036101000a031916815260200191505b509350505050602060405180830381600087803b15801561217557600080fd5b505af1158015612189573d6000803e3d6000fd5b505050506040513d602081101561219f57600080fd5b81019080805190602001909291905050509050823a02670de0b6b3a7640000018111156121d25760006001029150612385565b600160009054906101000a900473ffffffffffffffffffffffffffffffffffffffff1673ffffffffffffffffffffffffffffffffffffffff1663c51be90f8260008888886040518663ffffffff167c0100000000000000000000000000000000000000000000000000000000028152600401808581526020018060200180602001848152602001838103835286818151815260200191508051906020019080838360005b83811015612291578082015181840152602081019050612276565b50505050905090810190601f1680156122be5780820380516001836020036101000a031916815260200191505b50838103825285818151815260200191508051906020019080838360005b838110156122f75780820151818401526020810190506122dc565b50505050905090810190601f1680156123245780820380516001836020036101000a031916815260200191505b5096505050505050506020604051808303818588803b15801561234657600080fd5b505af115801561235a573d6000803e3d6000fd5b50505050506040513d602081101561237157600080fd5b810190808051906020019092919050505091505b509392505050565b6000813b9050919050565b6000806123b8731d3b2638a7cc9f2cb3d298a3da7a90b67e5506ed61238d565b111561245957731d3b2638a7cc9f2cb3d298a3da7a90b67e5506ed6000806101000a81548173ffffffffffffffffffffffffffffffffffffffff021916908373ffffffffffffffffffffffffffffffffffffffff1602179055506124506040805190810160405280600b81526020017f6574685f6d61696e6e6574000000000000000000000000000000000000000000815250612e13565b60019050612824565b600061247873c03a2615d5efaf5f49f60b7bb6583eaec212fdf161238d565b11156125195773c03a2615d5efaf5f49f60b7bb6583eaec212fdf16000806101000a81548173ffffffffffffffffffffffffffffffffffffffff021916908373ffffffffffffffffffffffffffffffffffffffff1602179055506125106040805190810160405280600c81526020017f6574685f726f707374656e330000000000000000000000000000000000000000815250612e13565b60019050612824565b600061253873b7a07bcf2ba2f2703b24c0691b5278999c59ac7e61238d565b11156125d95773b7a07bcf2ba2f2703b24c0691b5278999c59ac7e6000806101000a81548173ffffffffffffffffffffffffffffffffffffffff021916908373ffffffffffffffffffffffffffffffffffffffff1602179055506125d06040805190810160405280600981526020017f6574685f6b6f76616e0000000000000000000000000000000000000000000000815250612e13565b60019050612824565b60006125f873146500cfd35b22e4a392fe0adc06de1a1368ed4861238d565b11156126995773146500cfd35b22e4a392fe0adc06de1a1368ed486000806101000a81548173ffffffffffffffffffffffffffffffffffffffff021916908373ffffffffffffffffffffffffffffffffffffffff1602179055506126906040805190810160405280600b81526020017f6574685f72696e6b656279000000000000000000000000000000000000000000815250612e13565b60019050612824565b60006126b8736f485c8bf6fc43ea212e93bbf8ce046c7f1cb47561238d565b111561271b57736f485c8bf6fc43ea212e93bbf8ce046c7f1cb4756000806101000a81548173ffffffffffffffffffffffffffffffffffffffff021916908373ffffffffffffffffffffffffffffffffffffffff16021790555060019050612824565b600061273a7320e12a1f859b3feae5fb2a0a32c18f5a65555bbf61238d565b111561279d577320e12a1f859b3feae5fb2a0a32c18f5a65555bbf6000806101000a81548173ffffffffffffffffffffffffffffffffffffffff021916908373ffffffffffffffffffffffffffffffffffffffff16021790555060019050612824565b60006127bc7351efaf4c8b3c9afbd5ab9f4bbc82784ab6ef8faa61238d565b111561281f577351efaf4c8b3c9afbd5ab9f4bbc82784ab6ef8faa6000806101000a81548173ffffffffffffffffffffffffffffffffffffffff021916908373ffffffffffffffffffffffffffffffffffffffff16021790555060019050612824565b600090505b919050565b6000612836826000612e2d565b9050919050565b600082821115151561284b57fe5b818303905092915050565b6000818381151561286357fe5b04905092915050565b600080600084141561288157600091506128a0565b828402905082848281151561289257fe5b0414151561289c57fe5b8091505b5092915050565b606060008060606000808614156128f5576040805190810160405280600181526020017f300000000000000000000000000000000000000000000000000000000000000081525094506129f5565b8593505b60008414151561291f578280600101935050600a8481151561291757fe5b0493506128f9565b826040519080825280601f01601f1916602001820160405280156129525781602001602082028038833980820191505090505b5091506001830390505b6000861415156129f157600a8681151561297257fe5b066030017f0100000000000000000000000000000000000000000000000000000000000000028282806001900393508151811015156129ad57fe5b9060200101907effffffffffffffffffffffffffffffffffffffffffffffffffffffffffffff1916908160001a905350600a868115156129e957fe5b04955061295c565b8194505b50505050919050565b6060806060806060806060806000808e98508d97508c96508b95508a94508451865188518a518c51010101016040519080825280601f01601f191660200182016040528015612a5c5781602001602082028038833980820191505090505b50935083925060009150600090505b8851811015612b1e578881815181101515612a8257fe5b9060200101517f010000000000000000000000000000000000000000000000000000000000000090047f0100000000000000000000000000000000000000000000000000000000000000028383806001019450815181101515612ae157fe5b9060200101907effffffffffffffffffffffffffffffffffffffffffffffffffffffffffffff1916908160001a9053508080600101915050612a6b565b600090505b8751811015612bd6578781815181101515612b3a57fe5b9060200101517f010000000000000000000000000000000000000000000000000000000000000090047f0100000000000000000000000000000000000000000000000000000000000000028383806001019450815181101515612b9957fe5b9060200101907effffffffffffffffffffffffffffffffffffffffffffffffffffffffffffff1916908160001a9053508080600101915050612b23565b600090505b8651811015612c8e578681815181101515612bf257fe5b9060200101517f010000000000000000000000000000000000000000000000000000000000000090047f0100000000000000000000000000000000000000000000000000000000000000028383806001019450815181101515612c5157fe5b9060200101907effffffffffffffffffffffffffffffffffffffffffffffffffffffffffffff1916908160001a9053508080600101915050612bdb565b600090505b8551811015612d46578581815181101515612caa57fe5b9060200101517f010000000000000000000000000000000000000000000000000000000000000090047f0100000000000000000000000000000000000000000000000000000000000000028383806001019450815181101515612d0957fe5b9060200101907effffffffffffffffffffffffffffffffffffffffffffffffffffffffffffff1916908160001a9053508080600101915050612c93565b600090505b8451811015612dfe578481815181101515612d6257fe5b9060200101517f010000000000000000000000000000000000000000000000000000000000000090047f0100000000000000000000000000000000000000000000000000000000000000028383806001019450815181101515612dc157fe5b9060200101907effffffffffffffffffffffffffffffffffffffffffffffffffffffffffffff1916908160001a9053508080600101915050612d4b565b82995050505050505050505095945050505050565b8060029080519060200190612e29929190613170565b5050565b6000606060008060008693506000925060009150600090505b83518110156131025760307f0100000000000000000000000000000000000000000000000000000000000000028482815181101515612e8157fe5b9060200101517f010000000000000000000000000000000000000000000000000000000000000090047f0100000000000000000000000000000000000000000000000000000000000000027effffffffffffffffffffffffffffffffffffffffffffffffffffffffffffff191610158015612f99575060397f0100000000000000000000000000000000000000000000000000000000000000028482815181101515612f2957fe5b9060200101517f010000000000000000000000000000000000000000000000000000000000000090047f0100000000000000000000000000000000000000000000000000000000000000027effffffffffffffffffffffffffffffffffffffffffffffffffffffffffffff191611155b1561304a578115612fbc576000861415612fb257613102565b8580600190039650505b600a8302925060308482815181101515612fd257fe5b9060200101517f010000000000000000000000000000000000000000000000000000000000000090047f0100000000000000000000000000000000000000000000000000000000000000027f0100000000000000000000000000000000000000000000000000000000000000900403830192506130f5565b602e7f010000000000000000000000000000000000000000000000000000000000000002848281518110151561307c57fe5b9060200101517f010000000000000000000000000000000000000000000000000000000000000090047f0100000000000000000000000000000000000000000000000000000000000000027effffffffffffffffffffffffffffffffffffffffffffffffffffffffffffff191614156130f457600191505b5b8080600101915050612e46565b60008611156131145785600a0a830292505b8294505050505092915050565b60c060405190810160405280600073ffffffffffffffffffffffffffffffffffffffff168152602001600081526020016000815260200160008152602001600081526020016000151581525090565b828054600181600116156101000203166002900490600052602060002090601f016020900481019282601f106131b157805160ff19168380011785556131df565b828001600101855582156131df579182015b828111156131de5782518255916020019190600101906131c3565b5b5090506131ec91906131f0565b5090565b61321291905b8082111561320e5760008160009055506001016131f6565b5090565b905600a165627a7a72305820ddad6d9d1298b11b6dd0ac10304f39d30c50089968c027db851b3f538d663b000029",
  "source": "pragma solidity ^0.4.4;\n\nimport \"./oraclizeAPI.sol\";\n\nimport \"./Ownable.sol\";\nimport \"./SafeMath.sol\";\n\ncontract Dice is usingOraclize, Ownable {\n  using SafeMath for uint256;\n\n  uint256 constant INVALID_ROLL = 0;\n\n  // Depends on slider\n  uint256 constant MIN_ROLL = 1;\n  uint256 constant MAX_ROLL = 100;\n  bytes32 constant DEFAULT_BYTES32 = 0x0000000000000000000000000000000000000000000000000000000000000000;\n\n  // This governs how much gas we'll have for the oraclize callback\n  uint256 constant ORACLIZE_GAS_COST = 500000;\n\n  struct GameData {\n    address player;\n    uint256 odds; // represents the roll under which all winning rolls must lie\n    uint256 trueWager;\n    uint256 roll; // only populated when game is complete\n    uint256 maxProfit; // max profit calculated at roll time\n    bool active;\n  }\n\n  // TODO: Un-public these things after I'm done debugging\n  mapping(bytes32 => GameData) public _queryToGameData;\n  mapping(address => bytes32) public _playerToCurrentQuery;\n\n  // TODO: Remove! or make private\n  mapping(address => uint256) public _playerToPayouts;\n\n  // TODO: Remove!\n  string public lastQuery;\n  string public lastResult;\n  uint256 public lastPayout;\n\n  // For display purposes only\n  uint256 public completedGames = 0;\n\n  event RollCompleted(\n    address indexed player,\n    uint256 trueWager,\n    uint256 odds,\n    uint256 roll,\n    uint256 totalPayout\n  );\n\n  event RollSubmitted(\n    address indexed player,\n    uint256 odds,\n    uint256 trueWager\n  );\n\n  event RollCancelled(\n    address indexed player\n  );\n\n  event PlayerPaidOut(\n    address indexed player,\n    uint256 payout\n  );\n\n  constructor() public {}\n\n  ////////////////\n  // ADMIN ACTIONS\n  ////////////////\n\n  function withdrawBalance() external onlyOwner {\n    uint256 balance = address(this).balance;\n\n    // No withdrawal necessary if <= 0 balance\n    require(balance > 0);\n\n    msg.sender.transfer(balance);\n  }\n\n  // TODO: Access restrict this to whitelist\n  function addBalance() external payable {\n  }\n\n  ///////////////\n  // USER ACTIONS\n  ///////////////\n\n  // NOTE: Currently 10% of contract balance. Can be tuned\n  function getMaxProfit() public view returns(uint256) {\n    return address(this).balance / 10;\n  }\n\n  function rollDice(uint256 odds) external payable {\n    // Can't roll more than once at a time!\n    require(!hasActiveRoll());\n\n    uint256 queryPrice = oraclize_getPrice(\"URL\");\n\n    // player's wager\n    require(msg.value > queryPrice);\n    uint256 wagerAfterQuery = msg.value - queryPrice;\n    uint256 fee = _computeRollFee(wagerAfterQuery);\n    uint256 trueWager = wagerAfterQuery - fee;\n\n    // NOTE: Can probably simplify this to something static\n    string memory queryStr = _getQueryStr(MIN_ROLL, MAX_ROLL);\n\n    // TODO: When we need to encrypt random.org encryption key, this will need to become a 'nested' query\n    bytes32 qId = oraclize_query(\"URL\", queryStr, ORACLIZE_GAS_COST);\n\n    lastQuery = queryStr;\n\n    emit RollSubmitted(msg.sender, odds, trueWager);\n\n    _queryToGameData[qId] = GameData(\n      msg.sender,\n      odds,\n      trueWager,\n      INVALID_ROLL,\n      getMaxProfit(),\n      true\n    );\n    _playerToCurrentQuery[msg.sender] = qId;\n  }\n\n  // NOTE: 1%, can be modified!\n  function _computeRollFee(uint256 wagerAfterQuery) private pure returns (uint256) {\n    return SafeMath.div(wagerAfterQuery, 100);\n  }\n\n  // NOTE: Doesn't use API key so that we don't have to do all the fancy encryption stuff.\n  function _getQueryStr(uint256 min, uint256 max) internal returns(string) {\n    // TODO: encrypted query...\n    //string memory newStr = strConcat(\"[URL] ['json(https://api.random.org/json-rpc/1/invoke).result.random[\\\"serialNumber\\\",\\\"data\\\"]', '\\\\n{\\\"jsonrpc\\\":\\\"2.0\\\",\\\"method\\\":\\\"generateSignedIntegers\\\",\\\"params\\\":{\\\"apiKey\\\":${[decrypt] BKg3TCs7lkzNr1kR6pxjPCM2SOejcFojUPMTOsBkC/47HHPf1sP2oxVLTjNBu+slR9SgZyqDtjVOV5Yzg12iUkbubp0DpcjCEdeJTHnGwC6gD729GUVoGvo96huxwRoZlCjYO80rWq2WGYoR/LC3WampDuvv2Bo=},\\\"n\\\":1,\\\"min\\\":\", uint2str(min), \"\\\"max\\\"\": uint2str(max), \"\\\"replacement\\\":true,\\\"base\\\":10${[identity] \\\"}\\\"},\\\"id\\\":1${[identity] \\\"}\\\"}']\")\n\n    return strConcat(\"https://www.random.org/integers/?num=1&min=\", uint2str(min), \"&max=\", uint2str(max), \"&col=1&base=10&format=plain&rnd=new\");\n  }\n\n  function __callback(bytes32 qId, string result, bytes proof) public {\n    // Must be called by oraclize\n    require(msg.sender == oraclize_cbAddress());\n\n    GameData memory game = _queryToGameData[qId];\n\n    // Game must not have been cancelled or completed\n    require(game.active);\n\n    // TODO: Check authenticity proof\n\n    // TODO: Remove\n    lastResult = result;\n\n    // Payout player\n    uint256 roll = _resultToRoll(result);\n    uint256 payout = _calculatePayout(qId, roll);\n    address player = game.player;\n    if (payout > 0) {\n      player.transfer(payout);\n      emit PlayerPaidOut(player, payout);\n    }\n\n    // TODO: Remove\n    lastPayout = payout;\n\n    // TODO: Delete game in the future to save space\n    game.roll = roll;\n    game.active = false;\n    _playerToCurrentQuery[player] = DEFAULT_BYTES32;\n\n    // TODO: Remove\n    _playerToPayouts[player] += payout;\n\n    // game completed!\n    completedGames = completedGames.add(1);\n    emit RollCompleted(player, game.trueWager, game.odds, roll, payout);\n  }\n\n  function _calculatePayout(bytes32 qId, uint256 roll) internal view returns(uint256) {\n    GameData memory game = _queryToGameData[qId];\n\n    uint256 odds = game.odds;\n    if (roll >= odds) {\n      return 0;\n    } else {\n      uint256 wager = game.trueWager;\n      uint256 maxProfit = game.maxProfit;\n\n      // payout = wager + winningsMultiple * wager\n      // winnings = (100 - x) / x\n      uint256 probabilityOdds = odds.sub(1);\n      uint256 invOdds = MAX_ROLL.sub(probabilityOdds);\n      uint256 winningsMultiple = invOdds.div(probabilityOdds);\n      uint256 winnings = winningsMultiple.mul(wager);\n      uint256 defaultWinnings = wager.add(winnings);\n\n      uint256 availableBalance = _getAvailableBalance() ;\n      if (defaultWinnings > availableBalance) {\n        return availableBalance;\n      }\n\n      else if (winnings > maxProfit) {\n        return wager.add(maxProfit);\n      }\n\n      else {\n        return defaultWinnings;\n      }\n    }\n  }\n\n  // NOTE: Set to less than total balance so contract balance can't ever be drained\n  function _getAvailableBalance() internal returns(uint256) {\n    return address(this).balance / 2;\n  }\n\n  function _resultToRoll(string result) internal returns(uint256) {\n    return parseInt(result);\n  }\n\n  function hasActiveRoll() public view returns(bool) {\n    return _playerToCurrentQuery[msg.sender] != DEFAULT_BYTES32;\n  }\n\n  function cancelActiveRoll() external {\n    bytes32 qId = _playerToCurrentQuery[msg.sender];\n\n    // Must have an active roll\n    require(qId != DEFAULT_BYTES32);\n\n    // Sanity check that game has same player associated with it\n    address player = _queryToGameData[qId].player;\n    require(player == msg.sender);\n\n    // cancel role\n    _queryToGameData[qId].active = false;\n    _playerToCurrentQuery[msg.sender] = DEFAULT_BYTES32;\n\n    uint256 refund = _queryToGameData[qId].trueWager;\n    uint256 availableBalance = _getAvailableBalance();\n\n    if (refund > availableBalance) {\n      player.transfer(availableBalance);\n    } else {\n      player.transfer(refund);\n    }\n\n    emit RollCancelled(player);\n  }\n}\n",
  "sourcePath": "/Users/lakshmansankar/src/etherdice/contracts/Dice.sol",
  "compiler": {
    "name": "solc",
    "version": "0.4.23+commit.124ca40d.Emscripten.clang"
  },
  "schemaVersion": "2.0.0",
  "updatedAt": "2018-05-09T02:01:24.093Z"
}