{
  "contractName": "Dice",
  "abi": [
    {
      "constant": true,
      "inputs": [],
      "name": "completedGames",
      "outputs": [
        {
          "name": "",
          "type": "uint256"
        }
      ],
      "payable": false,
      "stateMutability": "view",
      "type": "function"
    },
    {
      "constant": true,
      "inputs": [
        {
          "name": "",
          "type": "bytes32"
        }
      ],
      "name": "_queryToGameData",
      "outputs": [
        {
          "name": "player",
          "type": "address"
        },
        {
          "name": "odds",
          "type": "uint256"
        },
        {
          "name": "wager",
          "type": "uint256"
        },
        {
          "name": "trueWager",
          "type": "uint256"
        },
        {
          "name": "roll",
          "type": "uint256"
        },
        {
          "name": "maxProfit",
          "type": "uint256"
        }
      ],
      "payable": false,
      "stateMutability": "view",
      "type": "function"
    },
    {
      "constant": true,
      "inputs": [],
      "name": "owner",
      "outputs": [
        {
          "name": "",
          "type": "address"
        }
      ],
      "payable": false,
      "stateMutability": "view",
      "type": "function"
    },
    {
      "constant": false,
      "inputs": [
        {
          "name": "newOwner",
          "type": "address"
        }
      ],
      "name": "transferOwnership",
      "outputs": [],
      "payable": false,
      "stateMutability": "nonpayable",
      "type": "function"
    },
    {
      "inputs": [],
      "payable": false,
      "stateMutability": "nonpayable",
      "type": "constructor"
    },
    {
      "anonymous": false,
      "inputs": [
        {
          "indexed": true,
          "name": "player",
          "type": "address"
        },
        {
          "indexed": false,
          "name": "wager",
          "type": "uint256"
        },
        {
          "indexed": false,
          "name": "trueWager",
          "type": "uint256"
        },
        {
          "indexed": false,
          "name": "odds",
          "type": "uint256"
        },
        {
          "indexed": false,
          "name": "roll",
          "type": "uint256"
        },
        {
          "indexed": false,
          "name": "totalPayout",
          "type": "uint256"
        }
      ],
      "name": "RollCompleted",
      "type": "event"
    },
    {
      "anonymous": false,
      "inputs": [
        {
          "indexed": true,
          "name": "player",
          "type": "address"
        },
        {
          "indexed": false,
          "name": "odds",
          "type": "uint256"
        },
        {
          "indexed": false,
          "name": "trueWager",
          "type": "uint256"
        }
      ],
      "name": "RollSubmitted",
      "type": "event"
    },
    {
      "anonymous": false,
      "inputs": [
        {
          "indexed": true,
          "name": "player",
          "type": "address"
        },
        {
          "indexed": false,
          "name": "payout",
          "type": "uint256"
        }
      ],
      "name": "PlayerPaidOut",
      "type": "event"
    },
    {
      "anonymous": false,
      "inputs": [
        {
          "indexed": true,
          "name": "previousOwner",
          "type": "address"
        },
        {
          "indexed": true,
          "name": "newOwner",
          "type": "address"
        }
      ],
      "name": "OwnershipTransferred",
      "type": "event"
    },
    {
      "constant": false,
      "inputs": [],
      "name": "withdrawBalance",
      "outputs": [],
      "payable": false,
      "stateMutability": "nonpayable",
      "type": "function"
    },
    {
      "constant": false,
      "inputs": [],
      "name": "addBalance",
      "outputs": [],
      "payable": true,
      "stateMutability": "payable",
      "type": "function"
    },
    {
      "constant": true,
      "inputs": [],
      "name": "getMaxProfit",
      "outputs": [
        {
          "name": "",
          "type": "uint256"
        }
      ],
      "payable": false,
      "stateMutability": "view",
      "type": "function"
    },
    {
      "constant": false,
      "inputs": [
        {
          "name": "odds",
          "type": "uint256"
        }
      ],
      "name": "rollDice",
      "outputs": [],
      "payable": true,
      "stateMutability": "payable",
      "type": "function"
    },
    {
      "constant": false,
      "inputs": [
        {
          "name": "myid",
          "type": "bytes32"
        },
        {
          "name": "result",
          "type": "string"
        }
      ],
      "name": "__callback",
      "outputs": [],
      "payable": false,
      "stateMutability": "nonpayable",
      "type": "function"
    },
    {
      "constant": false,
      "inputs": [
        {
          "name": "qId",
          "type": "bytes32"
        },
        {
          "name": "result",
          "type": "string"
        },
        {
          "name": "proof",
          "type": "bytes"
        }
      ],
      "name": "__callback",
      "outputs": [],
      "payable": false,
      "stateMutability": "nonpayable",
      "type": "function"
    }
  ],
  "bytecode": "0x6080604052600060075534801561001557600080fd5b5033600560006101000a81548173ffffffffffffffffffffffffffffffffffffffff021916908373ffffffffffffffffffffffffffffffffffffffff160217905550612a09806100666000396000f3006080604052600436106100a4576000357c0100000000000000000000000000000000000000000000000000000000900463ffffffff16806327dc297e146100a957806338bbfa50146101205780635edfd788146101dd5780635f5f4443146102085780635fd8c7101461029c5780638da5cb5b146102b3578063acfff3771461030a578063b163cc381461032a578063ec062ac014610334578063f2fde38b1461035f575b600080fd5b3480156100b557600080fd5b5061011e6004803603810190808035600019169060200190929190803590602001908201803590602001908080601f01602080910402602001604051908101604052809392919081815260200183838082843782019150505050505091929192905050506103a2565b005b34801561012c57600080fd5b506101db6004803603810190808035600019169060200190929190803590602001908201803590602001908080601f0160208091040260200160405190810160405280939291908181526020018383808284378201915050505050509192919290803590602001908201803590602001908080601f01602080910402602001604051908101604052809392919081815260200183838082843782019150505050505091929192905050506103e5565b005b3480156101e957600080fd5b506101f261065d565b6040518082815260200191505060405180910390f35b34801561021457600080fd5b506102376004803603810190808035600019169060200190929190505050610663565b604051808773ffffffffffffffffffffffffffffffffffffffff1673ffffffffffffffffffffffffffffffffffffffff168152602001868152602001858152602001848152602001838152602001828152602001965050505050505060405180910390f35b3480156102a857600080fd5b506102b16106bf565b005b3480156102bf57600080fd5b506102c8610790565b604051808273ffffffffffffffffffffffffffffffffffffffff1673ffffffffffffffffffffffffffffffffffffffff16815260200191505060405180910390f35b610328600480360381019080803590602001909291905050506107b6565b005b6103326109d8565b005b34801561034057600080fd5b506103496109da565b6040518082815260200191505060405180910390f35b34801561036b57600080fd5b506103a0600480360381019080803573ffffffffffffffffffffffffffffffffffffffff169060200190929190505050610a05565b005b6103e1828260006040519080825280601f01601f1916602001820160405280156103db5781602001602082028038833980820191505090505b506103e5565b5050565b6103ed6128eb565b60008060006103fa610b5d565b73ffffffffffffffffffffffffffffffffffffffff163373ffffffffffffffffffffffffffffffffffffffff1614151561043357600080fd5b60066000886000191660001916815260200190815260200160002060c060405190810160405290816000820160009054906101000a900473ffffffffffffffffffffffffffffffffffffffff1673ffffffffffffffffffffffffffffffffffffffff1673ffffffffffffffffffffffffffffffffffffffff168152602001600182015481526020016002820154815260200160038201548152602001600482015481526020016005820154815250509350600084608001511415156104f757600080fd5b61050086610ebb565b925061050c8784610ecd565b91508360000151905060008211156105b4578073ffffffffffffffffffffffffffffffffffffffff166108fc839081150290604051600060405180830381858888f19350505050158015610564573d6000803e3d6000fd5b508073ffffffffffffffffffffffffffffffffffffffff167fc458bc9f00c29ca11ecdfa3e970a6b5fe084d6cb81b95e63c9bb2eba922bf473836040518082815260200191505060405180910390a25b828460800181815250506105d4600160075461107290919063ffffffff16565b6007819055508073ffffffffffffffffffffffffffffffffffffffff167f7bde31303f1057cf6c3fb7ff77b59078bc7d5e1e7dcc6a94b85b46e173a923698560400151866060015187602001518787604051808681526020018581526020018481526020018381526020018281526020019550505050505060405180910390a250505050505050565b60075481565b60066020528060005260406000206000915090508060000160009054906101000a900473ffffffffffffffffffffffffffffffffffffffff16908060010154908060020154908060030154908060040154908060050154905086565b6000600560009054906101000a900473ffffffffffffffffffffffffffffffffffffffff1673ffffffffffffffffffffffffffffffffffffffff163373ffffffffffffffffffffffffffffffffffffffff1614151561071d57600080fd5b3073ffffffffffffffffffffffffffffffffffffffff1631905060008111151561074657600080fd5b3373ffffffffffffffffffffffffffffffffffffffff166108fc829081150290604051600060405180830381858888f1935050505015801561078c573d6000803e3d6000fd5b5050565b600560009054906101000a900473ffffffffffffffffffffffffffffffffffffffff1681565b600080600080606060006107fe6040805190810160405280600381526020017f55524c0000000000000000000000000000000000000000000000000000000000815250611090565b9550853411151561080e57600080fd5b610821863461146090919063ffffffff16565b945061082c85611479565b9350610841848661146090919063ffffffff16565b925061084f6001606461148d565b91506108946040805190810160405280600381526020017f55524c0000000000000000000000000000000000000000000000000000000000815250836207a1206115a1565b90503373ffffffffffffffffffffffffffffffffffffffff167feb572415c627b25eebc7b29cbbef1a9608184cd772f28e749b5859267348ad078885604051808381526020018281526020019250505060405180910390a260c0604051908101604052803373ffffffffffffffffffffffffffffffffffffffff168152602001888152602001348152602001848152602001600081526020016109356109da565b81525060066000836000191660001916815260200190815260200160002060008201518160000160006101000a81548173ffffffffffffffffffffffffffffffffffffffff021916908373ffffffffffffffffffffffffffffffffffffffff1602179055506020820151816001015560408201518160020155606082015181600301556080820151816004015560a0820151816005015590505050505050505050565b565b6000600a3073ffffffffffffffffffffffffffffffffffffffff16318115156109ff57fe5b04905090565b600560009054906101000a900473ffffffffffffffffffffffffffffffffffffffff1673ffffffffffffffffffffffffffffffffffffffff163373ffffffffffffffffffffffffffffffffffffffff16141515610a6157600080fd5b600073ffffffffffffffffffffffffffffffffffffffff168173ffffffffffffffffffffffffffffffffffffffff1614151515610a9d57600080fd5b8073ffffffffffffffffffffffffffffffffffffffff16600560009054906101000a900473ffffffffffffffffffffffffffffffffffffffff1673ffffffffffffffffffffffffffffffffffffffff167f8be0079c531659141344cd1fd0a4f28419497f9722a3daafe3b4186f6b6457e060405160405180910390a380600560006101000a81548173ffffffffffffffffffffffffffffffffffffffff021916908373ffffffffffffffffffffffffffffffffffffffff16021790555050565b6000806000809054906101000a900473ffffffffffffffffffffffffffffffffffffffff1673ffffffffffffffffffffffffffffffffffffffff161480610bcd57506000610bcb6000809054906101000a900473ffffffffffffffffffffffffffffffffffffffff16611b51565b145b15610bde57610bdc6000611b5c565b505b6000809054906101000a900473ffffffffffffffffffffffffffffffffffffffff1673ffffffffffffffffffffffffffffffffffffffff166338cc48316040518163ffffffff167c0100000000000000000000000000000000000000000000000000000000028152600401602060405180830381600087803b158015610c6357600080fd5b505af1158015610c77573d6000803e3d6000fd5b505050506040513d6020811015610c8d57600080fd5b810190808051906020019092919050505073ffffffffffffffffffffffffffffffffffffffff16600160009054906101000a900473ffffffffffffffffffffffffffffffffffffffff1673ffffffffffffffffffffffffffffffffffffffff16141515610df5576000809054906101000a900473ffffffffffffffffffffffffffffffffffffffff1673ffffffffffffffffffffffffffffffffffffffff166338cc48316040518163ffffffff167c0100000000000000000000000000000000000000000000000000000000028152600401602060405180830381600087803b158015610d7957600080fd5b505af1158015610d8d573d6000803e3d6000fd5b505050506040513d6020811015610da357600080fd5b8101908080519060200190929190505050600160006101000a81548173ffffffffffffffffffffffffffffffffffffffff021916908373ffffffffffffffffffffffffffffffffffffffff1602179055505b600160009054906101000a900473ffffffffffffffffffffffffffffffffffffffff1673ffffffffffffffffffffffffffffffffffffffff1663c281d19e6040518163ffffffff167c0100000000000000000000000000000000000000000000000000000000028152600401602060405180830381600087803b158015610e7b57600080fd5b505af1158015610e8f573d6000803e3d6000fd5b505050506040513d6020811015610ea557600080fd5b8101908080519060200190929190505050905090565b6000610ec682611fed565b9050919050565b6000610ed76128eb565b600080600080600080600080600660008d6000191660001916815260200190815260200160002060c060405190810160405290816000820160009054906101000a900473ffffffffffffffffffffffffffffffffffffffff1673ffffffffffffffffffffffffffffffffffffffff1673ffffffffffffffffffffffffffffffffffffffff16815260200160018201548152602001600282015481526020016003820154815260200160048201548152602001600582015481525050985088602001519750878b101515610fad5760009950611063565b886060015196508860a001519550610fcf60018961146090919063ffffffff16565b9450610fe585606461146090919063ffffffff16565b935061100c85610ffe868a61200190919063ffffffff16565b61203c90919063ffffffff16565b9250611021838861107290919063ffffffff16565b915061102b612052565b90508082111561103d57809950611063565b8583111561105f57611058868861107290919063ffffffff16565b9950611063565b8199505b50505050505050505092915050565b600080828401905083811015151561108657fe5b8091505092915050565b6000806000809054906101000a900473ffffffffffffffffffffffffffffffffffffffff1673ffffffffffffffffffffffffffffffffffffffff161480611100575060006110fe6000809054906101000a900473ffffffffffffffffffffffffffffffffffffffff16611b51565b145b156111115761110f6000611b5c565b505b6000809054906101000a900473ffffffffffffffffffffffffffffffffffffffff1673ffffffffffffffffffffffffffffffffffffffff166338cc48316040518163ffffffff167c0100000000000000000000000000000000000000000000000000000000028152600401602060405180830381600087803b15801561119657600080fd5b505af11580156111aa573d6000803e3d6000fd5b505050506040513d60208110156111c057600080fd5b810190808051906020019092919050505073ffffffffffffffffffffffffffffffffffffffff16600160009054906101000a900473ffffffffffffffffffffffffffffffffffffffff1673ffffffffffffffffffffffffffffffffffffffff16141515611328576000809054906101000a900473ffffffffffffffffffffffffffffffffffffffff1673ffffffffffffffffffffffffffffffffffffffff166338cc48316040518163ffffffff167c0100000000000000000000000000000000000000000000000000000000028152600401602060405180830381600087803b1580156112ac57600080fd5b505af11580156112c0573d6000803e3d6000fd5b505050506040513d60208110156112d657600080fd5b8101908080519060200190929190505050600160006101000a81548173ffffffffffffffffffffffffffffffffffffffff021916908373ffffffffffffffffffffffffffffffffffffffff1602179055505b600160009054906101000a900473ffffffffffffffffffffffffffffffffffffffff1673ffffffffffffffffffffffffffffffffffffffff1663524f3889836040518263ffffffff167c01000000000000000000000000000000000000000000000000000000000281526004018080602001828103825283818151815260200191508051906020019080838360005b838110156113d25780820151818401526020810190506113b7565b50505050905090810190601f1680156113ff5780820380516001836020036101000a031916815260200191505b5092505050602060405180830381600087803b15801561141e57600080fd5b505af1158015611432573d6000803e3d6000fd5b505050506040513d602081101561144857600080fd5b81019080805190602001909291905050509050919050565b600082821115151561146e57fe5b818303905092915050565b600061148682606461203c565b9050919050565b6060611599606060405190810160405280602b81526020017f68747470733a2f2f7777772e72616e646f6d2e6f72672f696e7465676572732f81526020017f3f6e756d3d31266d696e3d0000000000000000000000000000000000000000008152506114f885612071565b6040805190810160405280600581526020017f266d61783d00000000000000000000000000000000000000000000000000000081525061153786612071565b606060405190810160405280602381526020017f26636f6c3d3126626173653d313026666f726d61743d706c61696e26726e643d81526020017f6e657700000000000000000000000000000000000000000000000000000000008152506121c8565b905092915050565b60008060008060009054906101000a900473ffffffffffffffffffffffffffffffffffffffff1673ffffffffffffffffffffffffffffffffffffffff161480611613575060006116116000809054906101000a900473ffffffffffffffffffffffffffffffffffffffff16611b51565b145b15611624576116226000611b5c565b505b6000809054906101000a900473ffffffffffffffffffffffffffffffffffffffff1673ffffffffffffffffffffffffffffffffffffffff166338cc48316040518163ffffffff167c0100000000000000000000000000000000000000000000000000000000028152600401602060405180830381600087803b1580156116a957600080fd5b505af11580156116bd573d6000803e3d6000fd5b505050506040513d60208110156116d357600080fd5b810190808051906020019092919050505073ffffffffffffffffffffffffffffffffffffffff16600160009054906101000a900473ffffffffffffffffffffffffffffffffffffffff1673ffffffffffffffffffffffffffffffffffffffff1614151561183b576000809054906101000a900473ffffffffffffffffffffffffffffffffffffffff1673ffffffffffffffffffffffffffffffffffffffff166338cc48316040518163ffffffff167c0100000000000000000000000000000000000000000000000000000000028152600401602060405180830381600087803b1580156117bf57600080fd5b505af11580156117d3573d6000803e3d6000fd5b505050506040513d60208110156117e957600080fd5b8101908080519060200190929190505050600160006101000a81548173ffffffffffffffffffffffffffffffffffffffff021916908373ffffffffffffffffffffffffffffffffffffffff1602179055505b600160009054906101000a900473ffffffffffffffffffffffffffffffffffffffff1673ffffffffffffffffffffffffffffffffffffffff16632ef3accc86856040518363ffffffff167c01000000000000000000000000000000000000000000000000000000000281526004018080602001838152602001828103825284818151815260200191508051906020019080838360005b838110156118ec5780820151818401526020810190506118d1565b50505050905090810190601f1680156119195780820380516001836020036101000a031916815260200191505b509350505050602060405180830381600087803b15801561193957600080fd5b505af115801561194d573d6000803e3d6000fd5b505050506040513d602081101561196357600080fd5b81019080805190602001909291905050509050823a02670de0b6b3a7640000018111156119965760006001029150611b49565b600160009054906101000a900473ffffffffffffffffffffffffffffffffffffffff1673ffffffffffffffffffffffffffffffffffffffff1663c51be90f8260008888886040518663ffffffff167c0100000000000000000000000000000000000000000000000000000000028152600401808581526020018060200180602001848152602001838103835286818151815260200191508051906020019080838360005b83811015611a55578082015181840152602081019050611a3a565b50505050905090810190601f168015611a825780820380516001836020036101000a031916815260200191505b50838103825285818151815260200191508051906020019080838360005b83811015611abb578082015181840152602081019050611aa0565b50505050905090810190601f168015611ae85780820380516001836020036101000a031916815260200191505b5096505050505050506020604051808303818588803b158015611b0a57600080fd5b505af1158015611b1e573d6000803e3d6000fd5b50505050506040513d6020811015611b3557600080fd5b810190808051906020019092919050505091505b509392505050565b6000813b9050919050565b600080611b7c731d3b2638a7cc9f2cb3d298a3da7a90b67e5506ed611b51565b1115611c1d57731d3b2638a7cc9f2cb3d298a3da7a90b67e5506ed6000806101000a81548173ffffffffffffffffffffffffffffffffffffffff021916908373ffffffffffffffffffffffffffffffffffffffff160217905550611c146040805190810160405280600b81526020017f6574685f6d61696e6e65740000000000000000000000000000000000000000008152506125dd565b60019050611fe8565b6000611c3c73c03a2615d5efaf5f49f60b7bb6583eaec212fdf1611b51565b1115611cdd5773c03a2615d5efaf5f49f60b7bb6583eaec212fdf16000806101000a81548173ffffffffffffffffffffffffffffffffffffffff021916908373ffffffffffffffffffffffffffffffffffffffff160217905550611cd46040805190810160405280600c81526020017f6574685f726f707374656e3300000000000000000000000000000000000000008152506125dd565b60019050611fe8565b6000611cfc73b7a07bcf2ba2f2703b24c0691b5278999c59ac7e611b51565b1115611d9d5773b7a07bcf2ba2f2703b24c0691b5278999c59ac7e6000806101000a81548173ffffffffffffffffffffffffffffffffffffffff021916908373ffffffffffffffffffffffffffffffffffffffff160217905550611d946040805190810160405280600981526020017f6574685f6b6f76616e00000000000000000000000000000000000000000000008152506125dd565b60019050611fe8565b6000611dbc73146500cfd35b22e4a392fe0adc06de1a1368ed48611b51565b1115611e5d5773146500cfd35b22e4a392fe0adc06de1a1368ed486000806101000a81548173ffffffffffffffffffffffffffffffffffffffff021916908373ffffffffffffffffffffffffffffffffffffffff160217905550611e546040805190810160405280600b81526020017f6574685f72696e6b6562790000000000000000000000000000000000000000008152506125dd565b60019050611fe8565b6000611e7c736f485c8bf6fc43ea212e93bbf8ce046c7f1cb475611b51565b1115611edf57736f485c8bf6fc43ea212e93bbf8ce046c7f1cb4756000806101000a81548173ffffffffffffffffffffffffffffffffffffffff021916908373ffffffffffffffffffffffffffffffffffffffff16021790555060019050611fe8565b6000611efe7320e12a1f859b3feae5fb2a0a32c18f5a65555bbf611b51565b1115611f61577320e12a1f859b3feae5fb2a0a32c18f5a65555bbf6000806101000a81548173ffffffffffffffffffffffffffffffffffffffff021916908373ffffffffffffffffffffffffffffffffffffffff16021790555060019050611fe8565b6000611f807351efaf4c8b3c9afbd5ab9f4bbc82784ab6ef8faa611b51565b1115611fe3577351efaf4c8b3c9afbd5ab9f4bbc82784ab6ef8faa6000806101000a81548173ffffffffffffffffffffffffffffffffffffffff021916908373ffffffffffffffffffffffffffffffffffffffff16021790555060019050611fe8565b600090505b919050565b6000611ffa8260006125f7565b9050919050565b60008060008414156120165760009150612035565b828402905082848281151561202757fe5b0414151561203157fe5b8091505b5092915050565b6000818381151561204957fe5b04905092915050565b60003073ffffffffffffffffffffffffffffffffffffffff1631905090565b606060008060606000808614156120bf576040805190810160405280600181526020017f300000000000000000000000000000000000000000000000000000000000000081525094506121bf565b8593505b6000841415156120e9578280600101935050600a848115156120e157fe5b0493506120c3565b826040519080825280601f01601f19166020018201604052801561211c5781602001602082028038833980820191505090505b5091506001830390505b6000861415156121bb57600a8681151561213c57fe5b066030017f01000000000000000000000000000000000000000000000000000000000000000282828060019003935081518110151561217757fe5b9060200101907effffffffffffffffffffffffffffffffffffffffffffffffffffffffffffff1916908160001a905350600a868115156121b357fe5b049550612126565b8194505b50505050919050565b6060806060806060806060806000808e98508d97508c96508b95508a94508451865188518a518c51010101016040519080825280601f01601f1916602001820160405280156122265781602001602082028038833980820191505090505b50935083925060009150600090505b88518110156122e857888181518110151561224c57fe5b9060200101517f010000000000000000000000000000000000000000000000000000000000000090047f01000000000000000000000000000000000000000000000000000000000000000283838060010194508151811015156122ab57fe5b9060200101907effffffffffffffffffffffffffffffffffffffffffffffffffffffffffffff1916908160001a9053508080600101915050612235565b600090505b87518110156123a057878181518110151561230457fe5b9060200101517f010000000000000000000000000000000000000000000000000000000000000090047f010000000000000000000000000000000000000000000000000000000000000002838380600101945081518110151561236357fe5b9060200101907effffffffffffffffffffffffffffffffffffffffffffffffffffffffffffff1916908160001a90535080806001019150506122ed565b600090505b86518110156124585786818151811015156123bc57fe5b9060200101517f010000000000000000000000000000000000000000000000000000000000000090047f010000000000000000000000000000000000000000000000000000000000000002838380600101945081518110151561241b57fe5b9060200101907effffffffffffffffffffffffffffffffffffffffffffffffffffffffffffff1916908160001a90535080806001019150506123a5565b600090505b855181101561251057858181518110151561247457fe5b9060200101517f010000000000000000000000000000000000000000000000000000000000000090047f01000000000000000000000000000000000000000000000000000000000000000283838060010194508151811015156124d357fe5b9060200101907effffffffffffffffffffffffffffffffffffffffffffffffffffffffffffff1916908160001a905350808060010191505061245d565b600090505b84518110156125c857848181518110151561252c57fe5b9060200101517f010000000000000000000000000000000000000000000000000000000000000090047f010000000000000000000000000000000000000000000000000000000000000002838380600101945081518110151561258b57fe5b9060200101907effffffffffffffffffffffffffffffffffffffffffffffffffffffffffffff1916908160001a9053508080600101915050612515565b82995050505050505050505095945050505050565b80600290805190602001906125f3929190612938565b5050565b6000606060008060008693506000925060009150600090505b83518110156128cc5760307f010000000000000000000000000000000000000000000000000000000000000002848281518110151561264b57fe5b9060200101517f010000000000000000000000000000000000000000000000000000000000000090047f0100000000000000000000000000000000000000000000000000000000000000027effffffffffffffffffffffffffffffffffffffffffffffffffffffffffffff191610158015612763575060397f01000000000000000000000000000000000000000000000000000000000000000284828151811015156126f357fe5b9060200101517f010000000000000000000000000000000000000000000000000000000000000090047f0100000000000000000000000000000000000000000000000000000000000000027effffffffffffffffffffffffffffffffffffffffffffffffffffffffffffff191611155b1561281457811561278657600086141561277c576128cc565b8580600190039650505b600a830292506030848281518110151561279c57fe5b9060200101517f010000000000000000000000000000000000000000000000000000000000000090047f0100000000000000000000000000000000000000000000000000000000000000027f0100000000000000000000000000000000000000000000000000000000000000900403830192506128bf565b602e7f010000000000000000000000000000000000000000000000000000000000000002848281518110151561284657fe5b9060200101517f010000000000000000000000000000000000000000000000000000000000000090047f0100000000000000000000000000000000000000000000000000000000000000027effffffffffffffffffffffffffffffffffffffffffffffffffffffffffffff191614156128be57600191505b5b8080600101915050612610565b60008611156128de5785600a0a830292505b8294505050505092915050565b60c060405190810160405280600073ffffffffffffffffffffffffffffffffffffffff16815260200160008152602001600081526020016000815260200160008152602001600081525090565b828054600181600116156101000203166002900490600052602060002090601f016020900481019282601f1061297957805160ff19168380011785556129a7565b828001600101855582156129a7579182015b828111156129a657825182559160200191906001019061298b565b5b5090506129b491906129b8565b5090565b6129da91905b808211156129d65760008160009055506001016129be565b5090565b905600a165627a7a72305820684b8d043bf23aa30f9209edb84f61ead81e87827c108a8e6960047a435c55a40029",
  "source": "pragma solidity ^0.4.4;\n\nimport \"./oraclizeAPI.sol\";\n\nimport \"./Ownable.sol\";\nimport \"./SafeMath.sol\";\n\ncontract Dice is usingOraclize, Ownable {\n  using SafeMath for uint256;\n\n  uint256 constant INVALID_ROLL = 0;\n\n  // Depends on slider\n  uint256 constant MIN_ROLL = 1;\n  uint256 constant MAX_ROLL = 100;\n  bytes32 constant DEFAULT_BYTES32 = 0x0000000000000000000000000000000000000000000000000000000000000000;\n\n  // This governs how much gas we'll have for the oraclize callback\n  uint256 constant ORACLIZE_GAS_COST = 500000;\n\n  struct GameData {\n    address player;\n    uint256 odds; // represents the roll under which all winning rolls must lie\n    uint256 wager;\n    uint256 trueWager;\n    uint256 roll; // only populated when game is complete\n    uint256 maxProfit; // max profit calculated at roll time\n  }\n\n  // TODO: Un-public this after I'm done debugging\n  mapping(bytes32 => GameData) public _queryToGameData;\n\n  // For display purposes only\n  uint256 public completedGames = 0;\n\n  event RollCompleted(\n    address indexed player,\n    uint256 wager,\n    uint256 trueWager,\n    uint256 odds,\n    uint256 roll,\n    uint256 totalPayout\n  );\n\n  event RollSubmitted(\n    address indexed player,\n    uint256 odds,\n    uint256 trueWager\n  );\n\n  event PlayerPaidOut(\n    address indexed player,\n    uint256 payout\n  );\n\n  constructor() public {}\n\n  ////////////////\n  // ADMIN ACTIONS\n  ////////////////\n\n  function withdrawBalance() external onlyOwner {\n    uint256 balance = address(this).balance;\n\n    // No withdrawal necessary if <= 0 balance\n    require(balance > 0);\n\n    msg.sender.transfer(balance);\n  }\n\n  // TODO: Access restrict this to whitelist\n  function addBalance() external payable {\n  }\n\n  ///////////////\n  // USER ACTIONS\n  ///////////////\n\n  // NOTE: Currently 10% of contract balance. Can be tuned\n  function getMaxProfit() public view returns(uint256) {\n    return address(this).balance / 10;\n  }\n\n  function rollDice(uint256 odds) external payable {\n    uint256 queryPrice = oraclize_getPrice(\"URL\");\n\n    // player's wager\n    require(msg.value > queryPrice);\n    uint256 wagerAfterQuery = msg.value.sub(queryPrice);\n    uint256 fee = _computeRollFee(wagerAfterQuery);\n    uint256 trueWager = wagerAfterQuery.sub(fee);\n\n    // NOTE: Can probably simplify this to something static\n    string memory queryStr = _getQueryStr(MIN_ROLL, MAX_ROLL);\n\n    // TODO: When we need to encrypt random.org encryption key, this will need to become a 'nested' query\n    bytes32 qId = oraclize_query(\"URL\", queryStr, ORACLIZE_GAS_COST);\n\n    emit RollSubmitted(msg.sender, odds, trueWager);\n\n    _queryToGameData[qId] = GameData(\n      msg.sender,\n      odds,\n      msg.value,\n      trueWager,\n      INVALID_ROLL,\n      getMaxProfit()\n    );\n  }\n\n  // NOTE: 1%, can be modified!\n  function _computeRollFee(uint256 wagerAfterQuery) private pure returns (uint256) {\n    return SafeMath.div(wagerAfterQuery, 100);\n  }\n\n  // NOTE: Doesn't use API key so that we don't have to do all the fancy encryption stuff.\n  function _getQueryStr(uint256 min, uint256 max) internal returns(string) {\n    // TODO: encrypted query...\n    //string memory newStr = strConcat(\"[URL] ['json(https://api.random.org/json-rpc/1/invoke).result.random[\\\"serialNumber\\\",\\\"data\\\"]', '\\\\n{\\\"jsonrpc\\\":\\\"2.0\\\",\\\"method\\\":\\\"generateSignedIntegers\\\",\\\"params\\\":{\\\"apiKey\\\":${[decrypt] BKg3TCs7lkzNr1kR6pxjPCM2SOejcFojUPMTOsBkC/47HHPf1sP2oxVLTjNBu+slR9SgZyqDtjVOV5Yzg12iUkbubp0DpcjCEdeJTHnGwC6gD729GUVoGvo96huxwRoZlCjYO80rWq2WGYoR/LC3WampDuvv2Bo=},\\\"n\\\":1,\\\"min\\\":\", uint2str(min), \"\\\"max\\\"\": uint2str(max), \"\\\"replacement\\\":true,\\\"base\\\":10${[identity] \\\"}\\\"},\\\"id\\\":1${[identity] \\\"}\\\"}']\")\n\n    return strConcat(\"https://www.random.org/integers/?num=1&min=\", uint2str(min), \"&max=\", uint2str(max), \"&col=1&base=10&format=plain&rnd=new\");\n  }\n\n  function __callback(bytes32 qId, string result, bytes proof) public {\n    // Must be called by oraclize\n    require(msg.sender == oraclize_cbAddress());\n\n    GameData memory game = _queryToGameData[qId];\n\n    // Game must not already have a roll associated with it\n    require(game.roll == INVALID_ROLL);\n\n    // Payout player\n    uint256 roll = _resultToRoll(result);\n    uint256 payout = _calculatePayout(qId, roll);\n    address player = game.player;\n    if (payout > 0) {\n      player.transfer(payout);\n      emit PlayerPaidOut(player, payout);\n    }\n\n    // TODO: Delete game in the future to save space\n    game.roll = roll;\n\n    // game completed!\n    completedGames = completedGames.add(1);\n    emit RollCompleted(player, game.wager, game.trueWager, game.odds, roll, payout);\n  }\n\n  function _calculatePayout(bytes32 qId, uint256 roll) internal view returns(uint256) {\n    GameData memory game = _queryToGameData[qId];\n\n    uint256 odds = game.odds;\n    if (roll >= odds) {\n      return 0;\n    } else {\n      uint256 wager = game.trueWager;\n      uint256 maxProfit = game.maxProfit;\n\n      // payout = wager + winningsMultiple * wager\n      // winnings = (100 - x) / x\n      uint256 probabilityOdds = odds.sub(1);\n      uint256 invOdds = MAX_ROLL.sub(probabilityOdds);\n      uint256 winnings = wager.mul(invOdds).div(probabilityOdds);\n      uint256 defaultWinnings = wager.add(winnings);\n\n      uint256 availableBalance = _getAvailableBalance() ;\n      if (defaultWinnings > availableBalance) {\n        return availableBalance;\n      }\n\n      else if (winnings > maxProfit) {\n        return wager.add(maxProfit);\n      }\n\n      else {\n        return defaultWinnings;\n      }\n    }\n  }\n\n  // NOTE: Set to less than total balance so contract balance can't ever be drained\n  function _getAvailableBalance() internal returns(uint256) {\n    return address(this).balance;\n  }\n\n  function _resultToRoll(string result) internal returns(uint256) {\n    return parseInt(result);\n  }\n}\n",
  "sourcePath": "/Users/lakshmansankar/src/whaleparty/contracts/Dice.sol",
  "compiler": {
    "name": "solc",
    "version": "0.4.23+commit.124ca40d.Emscripten.clang"
  },
  "schemaVersion": "2.0.0",
  "updatedAt": "2018-05-17T22:13:06.719Z"
}