{
  "contractName": "Dice",
  "abi": [
    {
      "constant": true,
      "inputs": [
        {
          "name": "",
          "type": "address"
        }
      ],
      "name": "_playerToCurrentQuery",
      "outputs": [
        {
          "name": "",
          "type": "bytes32"
        }
      ],
      "payable": false,
      "stateMutability": "view",
      "type": "function"
    },
    {
      "constant": true,
      "inputs": [],
      "name": "completedGames",
      "outputs": [
        {
          "name": "",
          "type": "uint256"
        }
      ],
      "payable": false,
      "stateMutability": "view",
      "type": "function"
    },
    {
      "constant": true,
      "inputs": [
        {
          "name": "",
          "type": "bytes32"
        }
      ],
      "name": "_queryToGameData",
      "outputs": [
        {
          "name": "player",
          "type": "address"
        },
        {
          "name": "odds",
          "type": "uint256"
        },
        {
          "name": "trueWager",
          "type": "uint256"
        },
        {
          "name": "roll",
          "type": "uint256"
        },
        {
          "name": "maxProfit",
          "type": "uint256"
        },
        {
          "name": "active",
          "type": "bool"
        }
      ],
      "payable": false,
      "stateMutability": "view",
      "type": "function"
    },
    {
      "constant": true,
      "inputs": [],
      "name": "owner",
      "outputs": [
        {
          "name": "",
          "type": "address"
        }
      ],
      "payable": false,
      "stateMutability": "view",
      "type": "function"
    },
    {
      "constant": true,
      "inputs": [],
      "name": "lastResult",
      "outputs": [
        {
          "name": "",
          "type": "string"
        }
      ],
      "payable": false,
      "stateMutability": "view",
      "type": "function"
    },
    {
      "constant": true,
      "inputs": [],
      "name": "lastPayout",
      "outputs": [
        {
          "name": "",
          "type": "uint256"
        }
      ],
      "payable": false,
      "stateMutability": "view",
      "type": "function"
    },
    {
      "constant": true,
      "inputs": [
        {
          "name": "",
          "type": "address"
        }
      ],
      "name": "_playerToPayouts",
      "outputs": [
        {
          "name": "",
          "type": "uint256"
        }
      ],
      "payable": false,
      "stateMutability": "view",
      "type": "function"
    },
    {
      "constant": true,
      "inputs": [],
      "name": "lastQuery",
      "outputs": [
        {
          "name": "",
          "type": "string"
        }
      ],
      "payable": false,
      "stateMutability": "view",
      "type": "function"
    },
    {
      "constant": false,
      "inputs": [
        {
          "name": "newOwner",
          "type": "address"
        }
      ],
      "name": "transferOwnership",
      "outputs": [],
      "payable": false,
      "stateMutability": "nonpayable",
      "type": "function"
    },
    {
      "inputs": [],
      "payable": false,
      "stateMutability": "nonpayable",
      "type": "constructor"
    },
    {
      "anonymous": false,
      "inputs": [
        {
          "indexed": true,
          "name": "player",
          "type": "address"
        },
        {
          "indexed": true,
          "name": "qId",
          "type": "bytes32"
        },
        {
          "indexed": false,
          "name": "roll",
          "type": "uint256"
        }
      ],
      "name": "GameCompleted",
      "type": "event"
    },
    {
      "anonymous": false,
      "inputs": [
        {
          "indexed": true,
          "name": "player",
          "type": "address"
        },
        {
          "indexed": true,
          "name": "qId",
          "type": "bytes32"
        },
        {
          "indexed": false,
          "name": "odds",
          "type": "uint256"
        },
        {
          "indexed": false,
          "name": "trueWager",
          "type": "uint256"
        }
      ],
      "name": "GameSubmitted",
      "type": "event"
    },
    {
      "anonymous": false,
      "inputs": [
        {
          "indexed": true,
          "name": "player",
          "type": "address"
        },
        {
          "indexed": false,
          "name": "payout",
          "type": "uint256"
        }
      ],
      "name": "PlayerPaidOut",
      "type": "event"
    },
    {
      "anonymous": false,
      "inputs": [
        {
          "indexed": true,
          "name": "previousOwner",
          "type": "address"
        },
        {
          "indexed": true,
          "name": "newOwner",
          "type": "address"
        }
      ],
      "name": "OwnershipTransferred",
      "type": "event"
    },
    {
      "constant": false,
      "inputs": [],
      "name": "withdrawBalance",
      "outputs": [],
      "payable": false,
      "stateMutability": "nonpayable",
      "type": "function"
    },
    {
      "constant": false,
      "inputs": [],
      "name": "addBalance",
      "outputs": [],
      "payable": true,
      "stateMutability": "payable",
      "type": "function"
    },
    {
      "constant": true,
      "inputs": [],
      "name": "getMaxProfit",
      "outputs": [
        {
          "name": "",
          "type": "uint256"
        }
      ],
      "payable": false,
      "stateMutability": "view",
      "type": "function"
    },
    {
      "constant": false,
      "inputs": [
        {
          "name": "odds",
          "type": "uint256"
        }
      ],
      "name": "rollDice",
      "outputs": [],
      "payable": true,
      "stateMutability": "payable",
      "type": "function"
    },
    {
      "constant": false,
      "inputs": [
        {
          "name": "myid",
          "type": "bytes32"
        },
        {
          "name": "result",
          "type": "string"
        }
      ],
      "name": "__callback",
      "outputs": [],
      "payable": false,
      "stateMutability": "nonpayable",
      "type": "function"
    },
    {
      "constant": false,
      "inputs": [
        {
          "name": "qId",
          "type": "bytes32"
        },
        {
          "name": "result",
          "type": "string"
        },
        {
          "name": "proof",
          "type": "bytes"
        }
      ],
      "name": "__callback",
      "outputs": [],
      "payable": false,
      "stateMutability": "nonpayable",
      "type": "function"
    },
    {
      "constant": true,
      "inputs": [],
      "name": "hasActiveRoll",
      "outputs": [
        {
          "name": "",
          "type": "bool"
        }
      ],
      "payable": false,
      "stateMutability": "view",
      "type": "function"
    },
    {
      "constant": false,
      "inputs": [],
      "name": "cancelActiveRoll",
      "outputs": [],
      "payable": false,
      "stateMutability": "nonpayable",
      "type": "function"
    }
  ],
  "bytecode": "0x60806040526000600c5534801561001557600080fd5b5033600560006101000a81548173ffffffffffffffffffffffffffffffffffffffff021916908373ffffffffffffffffffffffffffffffffffffffff1602179055506131e6806100666000396000f3006080604052600436106100f1576000357c0100000000000000000000000000000000000000000000000000000000900463ffffffff1680630512ca67146100f657806327dc297e1461012557806338bbfa501461019c5780635beea056146102595780635edfd788146102b85780635f5f4443146102e35780635fd8c7101461037b57806366164001146103925780638da5cb5b146103a9578063abcc11d814610400578063acfff37714610490578063b163cc38146104b0578063b9db102a146104ba578063bc7b0302146104e5578063dc33854c1461053c578063ec062ac0146105cc578063f2fde38b146105f7575b600080fd5b34801561010257600080fd5b5061010b61063a565b604051808215151515815260200191505060405180910390f35b34801561013157600080fd5b5061019a6004803603810190808035600019169060200190929190803590602001908201803590602001908080601f016020809104026020016040519081016040528093929190818152602001838380828437820191505050505050919291929050505061068f565b005b3480156101a857600080fd5b506102576004803603810190808035600019169060200190929190803590602001908201803590602001908080601f0160208091040260200160405190810160405280939291908181526020018383808284378201915050505050509192919290803590602001908201803590602001908080601f01602080910402602001604051908101604052809392919081815260200183838082843782019150505050505091929192905050506106d2565b005b34801561026557600080fd5b5061029a600480360381019080803573ffffffffffffffffffffffffffffffffffffffff169060200190929190505050610a0c565b60405180826000191660001916815260200191505060405180910390f35b3480156102c457600080fd5b506102cd610a24565b6040518082815260200191505060405180910390f35b3480156102ef57600080fd5b506103126004803603810190808035600019169060200190929190505050610a2a565b604051808773ffffffffffffffffffffffffffffffffffffffff1673ffffffffffffffffffffffffffffffffffffffff16815260200186815260200185815260200184815260200183815260200182151515158152602001965050505050505060405180910390f35b34801561038757600080fd5b50610390610a93565b005b34801561039e57600080fd5b506103a7610b64565b005b3480156103b557600080fd5b506103be610e09565b604051808273ffffffffffffffffffffffffffffffffffffffff1673ffffffffffffffffffffffffffffffffffffffff16815260200191505060405180910390f35b34801561040c57600080fd5b50610415610e2f565b6040518080602001828103825283818151815260200191508051906020019080838360005b8381101561045557808201518184015260208101905061043a565b50505050905090810190601f1680156104825780820380516001836020036101000a031916815260200191505b509250505060405180910390f35b6104ae60048036038101908080359060200190929190505050610ecd565b005b6104b861114c565b005b3480156104c657600080fd5b506104cf61114e565b6040518082815260200191505060405180910390f35b3480156104f157600080fd5b50610526600480360381019080803573ffffffffffffffffffffffffffffffffffffffff169060200190929190505050611154565b6040518082815260200191505060405180910390f35b34801561054857600080fd5b5061055161116c565b6040518080602001828103825283818151815260200191508051906020019080838360005b83811015610591578082015181840152602081019050610576565b50505050905090810190601f1680156105be5780820380516001836020036101000a031916815260200191505b509250505060405180910390f35b3480156105d857600080fd5b506105e161120a565b6040518082815260200191505060405180910390f35b34801561060357600080fd5b50610638600480360381019080803573ffffffffffffffffffffffffffffffffffffffff169060200190929190505050611235565b005b60008060010260001916600760003373ffffffffffffffffffffffffffffffffffffffff1673ffffffffffffffffffffffffffffffffffffffff16815260200190815260200160002054600019161415905090565b6106ce828260006040519080825280601f01601f1916602001820160405280156106c85781602001602082028038833980820191505090505b506106d2565b5050565b60008060006106df61138d565b73ffffffffffffffffffffffffffffffffffffffff163373ffffffffffffffffffffffffffffffffffffffff1614151561071857600080fd5b60066000876000191660001916815260200190815260200160002060050160009054906101000a900460ff16151561074f57600080fd5b84600a90805190602001906107659291906130c6565b5061076f856116eb565b925061077b86846116fd565b915060066000876000191660001916815260200190815260200160002060000160009054906101000a900473ffffffffffffffffffffffffffffffffffffffff169050600082111561085d578073ffffffffffffffffffffffffffffffffffffffff166108fc839081150290604051600060405180830381858888f1935050505015801561080d573d6000803e3d6000fd5b508073ffffffffffffffffffffffffffffffffffffffff167fc458bc9f00c29ca11ecdfa3e970a6b5fe084d6cb81b95e63c9bb2eba922bf473836040518082815260200191505060405180910390a25b81600b819055508260066000886000191660001916815260200190815260200160002060030181905550600060066000886000191660001916815260200190815260200160002060050160006101000a81548160ff0219169083151502179055506000600102600760008373ffffffffffffffffffffffffffffffffffffffff1673ffffffffffffffffffffffffffffffffffffffff168152602001908152602001600020816000191690555081600860008373ffffffffffffffffffffffffffffffffffffffff1673ffffffffffffffffffffffffffffffffffffffff1681526020019081526020016000206000828254019250508190555061096d6001600c5461188890919063ffffffff16565b600c81905550856000191660066000886000191660001916815260200190815260200160002060000160009054906101000a900473ffffffffffffffffffffffffffffffffffffffff1673ffffffffffffffffffffffffffffffffffffffff167ff52a6c30c748607b76d81ff61d1361758baf6ce9b4f5624ce56aa7482f107fe3856040518082815260200191505060405180910390a3505050505050565b60076020528060005260406000206000915090505481565b600c5481565b60066020528060005260406000206000915090508060000160009054906101000a900473ffffffffffffffffffffffffffffffffffffffff16908060010154908060020154908060030154908060040154908060050160009054906101000a900460ff16905086565b6000600560009054906101000a900473ffffffffffffffffffffffffffffffffffffffff1673ffffffffffffffffffffffffffffffffffffffff163373ffffffffffffffffffffffffffffffffffffffff16141515610af157600080fd5b3073ffffffffffffffffffffffffffffffffffffffff16319050600081111515610b1a57600080fd5b3373ffffffffffffffffffffffffffffffffffffffff166108fc829081150290604051600060405180830381858888f19350505050158015610b60573d6000803e3d6000fd5b5050565b6000806000600760003373ffffffffffffffffffffffffffffffffffffffff1673ffffffffffffffffffffffffffffffffffffffff168152602001908152602001600020549250600060010260001916836000191614151515610bc657600080fd5b3373ffffffffffffffffffffffffffffffffffffffff1660066000856000191660001916815260200190815260200160002060000160009054906101000a900473ffffffffffffffffffffffffffffffffffffffff1673ffffffffffffffffffffffffffffffffffffffff16141515610c3e57600080fd5b600060066000856000191660001916815260200190815260200160002060050160006101000a81548160ff0219169083151502179055506000600102600760003373ffffffffffffffffffffffffffffffffffffffff1673ffffffffffffffffffffffffffffffffffffffff1681526020019081526020016000208160001916905550600660008460001916600019168152602001908152602001600020600201549150610cea6118a6565b905080821115610d7e5760066000846000191660001916815260200190815260200160002060000160009054906101000a900473ffffffffffffffffffffffffffffffffffffffff1673ffffffffffffffffffffffffffffffffffffffff166108fc829081150290604051600060405180830381858888f19350505050158015610d78573d6000803e3d6000fd5b50610e04565b60066000846000191660001916815260200190815260200160002060000160009054906101000a900473ffffffffffffffffffffffffffffffffffffffff1673ffffffffffffffffffffffffffffffffffffffff166108fc839081150290604051600060405180830381858888f19350505050158015610e02573d6000803e3d6000fd5b505b505050565b600560009054906101000a900473ffffffffffffffffffffffffffffffffffffffff1681565b600a8054600181600116156101000203166002900480601f016020809104026020016040519081016040528092919081815260200182805460018160011615610100020316600290048015610ec55780601f10610e9a57610100808354040283529160200191610ec5565b820191906000526020600020905b815481529060010190602001808311610ea857829003601f168201915b505050505081565b60008060008060606000610f156040805190810160405280600381526020017f55524c00000000000000000000000000000000000000000000000000000000008152506118c5565b95508534111515610f2557600080fd5b8534039450610f3385611c95565b93508385039250610f4660016064611ca9565b9150610f8b6040805190810160405280600381526020017f55524c0000000000000000000000000000000000000000000000000000000000815250836207a120611dbd565b90508160099080519060200190610fa39291906130c6565b5080600019163373ffffffffffffffffffffffffffffffffffffffff167fe41f78af806dad1e959b7a9e3336160efecb91a2ace12b769859cd236a3425b88986604051808381526020018281526020019250505060405180910390a360c0604051908101604052803373ffffffffffffffffffffffffffffffffffffffff1681526020018881526020018481526020016000815260200161104261120a565b81526020016001151581525060066000836000191660001916815260200190815260200160002060008201518160000160006101000a81548173ffffffffffffffffffffffffffffffffffffffff021916908373ffffffffffffffffffffffffffffffffffffffff1602179055506020820151816001015560408201518160020155606082015181600301556080820151816004015560a08201518160050160006101000a81548160ff02191690831515021790555090505080600760003373ffffffffffffffffffffffffffffffffffffffff1673ffffffffffffffffffffffffffffffffffffffff168152602001908152602001600020816000191690555050505050505050565b565b600b5481565b60086020528060005260406000206000915090505481565b60098054600181600116156101000203166002900480601f0160208091040260200160405190810160405280929190818152602001828054600181600116156101000203166002900480156112025780601f106111d757610100808354040283529160200191611202565b820191906000526020600020905b8154815290600101906020018083116111e557829003601f168201915b505050505081565b6000600a3073ffffffffffffffffffffffffffffffffffffffff163181151561122f57fe5b04905090565b600560009054906101000a900473ffffffffffffffffffffffffffffffffffffffff1673ffffffffffffffffffffffffffffffffffffffff163373ffffffffffffffffffffffffffffffffffffffff1614151561129157600080fd5b600073ffffffffffffffffffffffffffffffffffffffff168173ffffffffffffffffffffffffffffffffffffffff16141515156112cd57600080fd5b8073ffffffffffffffffffffffffffffffffffffffff16600560009054906101000a900473ffffffffffffffffffffffffffffffffffffffff1673ffffffffffffffffffffffffffffffffffffffff167f8be0079c531659141344cd1fd0a4f28419497f9722a3daafe3b4186f6b6457e060405160405180910390a380600560006101000a81548173ffffffffffffffffffffffffffffffffffffffff021916908373ffffffffffffffffffffffffffffffffffffffff16021790555050565b6000806000809054906101000a900473ffffffffffffffffffffffffffffffffffffffff1673ffffffffffffffffffffffffffffffffffffffff1614806113fd575060006113fb6000809054906101000a900473ffffffffffffffffffffffffffffffffffffffff1661236d565b145b1561140e5761140c6000612378565b505b6000809054906101000a900473ffffffffffffffffffffffffffffffffffffffff1673ffffffffffffffffffffffffffffffffffffffff166338cc48316040518163ffffffff167c0100000000000000000000000000000000000000000000000000000000028152600401602060405180830381600087803b15801561149357600080fd5b505af11580156114a7573d6000803e3d6000fd5b505050506040513d60208110156114bd57600080fd5b810190808051906020019092919050505073ffffffffffffffffffffffffffffffffffffffff16600160009054906101000a900473ffffffffffffffffffffffffffffffffffffffff1673ffffffffffffffffffffffffffffffffffffffff16141515611625576000809054906101000a900473ffffffffffffffffffffffffffffffffffffffff1673ffffffffffffffffffffffffffffffffffffffff166338cc48316040518163ffffffff167c0100000000000000000000000000000000000000000000000000000000028152600401602060405180830381600087803b1580156115a957600080fd5b505af11580156115bd573d6000803e3d6000fd5b505050506040513d60208110156115d357600080fd5b8101908080519060200190929190505050600160006101000a81548173ffffffffffffffffffffffffffffffffffffffff021916908373ffffffffffffffffffffffffffffffffffffffff1602179055505b600160009054906101000a900473ffffffffffffffffffffffffffffffffffffffff1673ffffffffffffffffffffffffffffffffffffffff1663c281d19e6040518163ffffffff167c0100000000000000000000000000000000000000000000000000000000028152600401602060405180830381600087803b1580156116ab57600080fd5b505af11580156116bf573d6000803e3d6000fd5b505050506040513d60208110156116d557600080fd5b8101908080519060200190929190505050905090565b60006116f682612809565b9050919050565b6000611707613146565b6000806000806000806000600660008c6000191660001916815260200190815260200160002060c060405190810160405290816000820160009054906101000a900473ffffffffffffffffffffffffffffffffffffffff1673ffffffffffffffffffffffffffffffffffffffff1673ffffffffffffffffffffffffffffffffffffffff168152602001600182015481526020016002820154815260200160038201548152602001600482015481526020016005820160009054906101000a900460ff161515151581525050975087602001519650868a11156117ec576000985061187a565b876040015195508760800151945061180e87606461281d90919063ffffffff16565b9350611823878561283690919063ffffffff16565b9250611838838761188890919063ffffffff16565b91506118426118a6565b9050808211156118545780985061187a565b848311156118765761186f858761188890919063ffffffff16565b985061187a565b8198505b505050505050505092915050565b600080828401905083811015151561189c57fe5b8091505092915050565b60003073ffffffffffffffffffffffffffffffffffffffff1631905090565b6000806000809054906101000a900473ffffffffffffffffffffffffffffffffffffffff1673ffffffffffffffffffffffffffffffffffffffff161480611935575060006119336000809054906101000a900473ffffffffffffffffffffffffffffffffffffffff1661236d565b145b15611946576119446000612378565b505b6000809054906101000a900473ffffffffffffffffffffffffffffffffffffffff1673ffffffffffffffffffffffffffffffffffffffff166338cc48316040518163ffffffff167c0100000000000000000000000000000000000000000000000000000000028152600401602060405180830381600087803b1580156119cb57600080fd5b505af11580156119df573d6000803e3d6000fd5b505050506040513d60208110156119f557600080fd5b810190808051906020019092919050505073ffffffffffffffffffffffffffffffffffffffff16600160009054906101000a900473ffffffffffffffffffffffffffffffffffffffff1673ffffffffffffffffffffffffffffffffffffffff16141515611b5d576000809054906101000a900473ffffffffffffffffffffffffffffffffffffffff1673ffffffffffffffffffffffffffffffffffffffff166338cc48316040518163ffffffff167c0100000000000000000000000000000000000000000000000000000000028152600401602060405180830381600087803b158015611ae157600080fd5b505af1158015611af5573d6000803e3d6000fd5b505050506040513d6020811015611b0b57600080fd5b8101908080519060200190929190505050600160006101000a81548173ffffffffffffffffffffffffffffffffffffffff021916908373ffffffffffffffffffffffffffffffffffffffff1602179055505b600160009054906101000a900473ffffffffffffffffffffffffffffffffffffffff1673ffffffffffffffffffffffffffffffffffffffff1663524f3889836040518263ffffffff167c01000000000000000000000000000000000000000000000000000000000281526004018080602001828103825283818151815260200191508051906020019080838360005b83811015611c07578082015181840152602081019050611bec565b50505050905090810190601f168015611c345780820380516001836020036101000a031916815260200191505b5092505050602060405180830381600087803b158015611c5357600080fd5b505af1158015611c67573d6000803e3d6000fd5b505050506040513d6020811015611c7d57600080fd5b81019080805190602001909291905050509050919050565b6000611ca2826064612836565b9050919050565b6060611db5606060405190810160405280602b81526020017f68747470733a2f2f7777772e72616e646f6d2e6f72672f696e7465676572732f81526020017f3f6e756d3d31266d696e3d000000000000000000000000000000000000000000815250611d148561284c565b6040805190810160405280600581526020017f266d61783d000000000000000000000000000000000000000000000000000000815250611d538661284c565b606060405190810160405280602381526020017f26636f6c3d3126626173653d313026666f726d61743d706c61696e26726e643d81526020017f6e657700000000000000000000000000000000000000000000000000000000008152506129a3565b905092915050565b60008060008060009054906101000a900473ffffffffffffffffffffffffffffffffffffffff1673ffffffffffffffffffffffffffffffffffffffff161480611e2f57506000611e2d6000809054906101000a900473ffffffffffffffffffffffffffffffffffffffff1661236d565b145b15611e4057611e3e6000612378565b505b6000809054906101000a900473ffffffffffffffffffffffffffffffffffffffff1673ffffffffffffffffffffffffffffffffffffffff166338cc48316040518163ffffffff167c0100000000000000000000000000000000000000000000000000000000028152600401602060405180830381600087803b158015611ec557600080fd5b505af1158015611ed9573d6000803e3d6000fd5b505050506040513d6020811015611eef57600080fd5b810190808051906020019092919050505073ffffffffffffffffffffffffffffffffffffffff16600160009054906101000a900473ffffffffffffffffffffffffffffffffffffffff1673ffffffffffffffffffffffffffffffffffffffff16141515612057576000809054906101000a900473ffffffffffffffffffffffffffffffffffffffff1673ffffffffffffffffffffffffffffffffffffffff166338cc48316040518163ffffffff167c0100000000000000000000000000000000000000000000000000000000028152600401602060405180830381600087803b158015611fdb57600080fd5b505af1158015611fef573d6000803e3d6000fd5b505050506040513d602081101561200557600080fd5b8101908080519060200190929190505050600160006101000a81548173ffffffffffffffffffffffffffffffffffffffff021916908373ffffffffffffffffffffffffffffffffffffffff1602179055505b600160009054906101000a900473ffffffffffffffffffffffffffffffffffffffff1673ffffffffffffffffffffffffffffffffffffffff16632ef3accc86856040518363ffffffff167c01000000000000000000000000000000000000000000000000000000000281526004018080602001838152602001828103825284818151815260200191508051906020019080838360005b838110156121085780820151818401526020810190506120ed565b50505050905090810190601f1680156121355780820380516001836020036101000a031916815260200191505b509350505050602060405180830381600087803b15801561215557600080fd5b505af1158015612169573d6000803e3d6000fd5b505050506040513d602081101561217f57600080fd5b81019080805190602001909291905050509050823a02670de0b6b3a7640000018111156121b25760006001029150612365565b600160009054906101000a900473ffffffffffffffffffffffffffffffffffffffff1673ffffffffffffffffffffffffffffffffffffffff1663c51be90f8260008888886040518663ffffffff167c0100000000000000000000000000000000000000000000000000000000028152600401808581526020018060200180602001848152602001838103835286818151815260200191508051906020019080838360005b83811015612271578082015181840152602081019050612256565b50505050905090810190601f16801561229e5780820380516001836020036101000a031916815260200191505b50838103825285818151815260200191508051906020019080838360005b838110156122d75780820151818401526020810190506122bc565b50505050905090810190601f1680156123045780820380516001836020036101000a031916815260200191505b5096505050505050506020604051808303818588803b15801561232657600080fd5b505af115801561233a573d6000803e3d6000fd5b50505050506040513d602081101561235157600080fd5b810190808051906020019092919050505091505b509392505050565b6000813b9050919050565b600080612398731d3b2638a7cc9f2cb3d298a3da7a90b67e5506ed61236d565b111561243957731d3b2638a7cc9f2cb3d298a3da7a90b67e5506ed6000806101000a81548173ffffffffffffffffffffffffffffffffffffffff021916908373ffffffffffffffffffffffffffffffffffffffff1602179055506124306040805190810160405280600b81526020017f6574685f6d61696e6e6574000000000000000000000000000000000000000000815250612db8565b60019050612804565b600061245873c03a2615d5efaf5f49f60b7bb6583eaec212fdf161236d565b11156124f95773c03a2615d5efaf5f49f60b7bb6583eaec212fdf16000806101000a81548173ffffffffffffffffffffffffffffffffffffffff021916908373ffffffffffffffffffffffffffffffffffffffff1602179055506124f06040805190810160405280600c81526020017f6574685f726f707374656e330000000000000000000000000000000000000000815250612db8565b60019050612804565b600061251873b7a07bcf2ba2f2703b24c0691b5278999c59ac7e61236d565b11156125b95773b7a07bcf2ba2f2703b24c0691b5278999c59ac7e6000806101000a81548173ffffffffffffffffffffffffffffffffffffffff021916908373ffffffffffffffffffffffffffffffffffffffff1602179055506125b06040805190810160405280600981526020017f6574685f6b6f76616e0000000000000000000000000000000000000000000000815250612db8565b60019050612804565b60006125d873146500cfd35b22e4a392fe0adc06de1a1368ed4861236d565b11156126795773146500cfd35b22e4a392fe0adc06de1a1368ed486000806101000a81548173ffffffffffffffffffffffffffffffffffffffff021916908373ffffffffffffffffffffffffffffffffffffffff1602179055506126706040805190810160405280600b81526020017f6574685f72696e6b656279000000000000000000000000000000000000000000815250612db8565b60019050612804565b6000612698736f485c8bf6fc43ea212e93bbf8ce046c7f1cb47561236d565b11156126fb57736f485c8bf6fc43ea212e93bbf8ce046c7f1cb4756000806101000a81548173ffffffffffffffffffffffffffffffffffffffff021916908373ffffffffffffffffffffffffffffffffffffffff16021790555060019050612804565b600061271a7320e12a1f859b3feae5fb2a0a32c18f5a65555bbf61236d565b111561277d577320e12a1f859b3feae5fb2a0a32c18f5a65555bbf6000806101000a81548173ffffffffffffffffffffffffffffffffffffffff021916908373ffffffffffffffffffffffffffffffffffffffff16021790555060019050612804565b600061279c7351efaf4c8b3c9afbd5ab9f4bbc82784ab6ef8faa61236d565b11156127ff577351efaf4c8b3c9afbd5ab9f4bbc82784ab6ef8faa6000806101000a81548173ffffffffffffffffffffffffffffffffffffffff021916908373ffffffffffffffffffffffffffffffffffffffff16021790555060019050612804565b600090505b919050565b6000612816826000612dd2565b9050919050565b600082821115151561282b57fe5b818303905092915050565b6000818381151561284357fe5b04905092915050565b6060600080606060008086141561289a576040805190810160405280600181526020017f3000000000000000000000000000000000000000000000000000000000000000815250945061299a565b8593505b6000841415156128c4578280600101935050600a848115156128bc57fe5b04935061289e565b826040519080825280601f01601f1916602001820160405280156128f75781602001602082028038833980820191505090505b5091506001830390505b60008614151561299657600a8681151561291757fe5b066030017f01000000000000000000000000000000000000000000000000000000000000000282828060019003935081518110151561295257fe5b9060200101907effffffffffffffffffffffffffffffffffffffffffffffffffffffffffffff1916908160001a905350600a8681151561298e57fe5b049550612901565b8194505b50505050919050565b6060806060806060806060806000808e98508d97508c96508b95508a94508451865188518a518c51010101016040519080825280601f01601f191660200182016040528015612a015781602001602082028038833980820191505090505b50935083925060009150600090505b8851811015612ac3578881815181101515612a2757fe5b9060200101517f010000000000000000000000000000000000000000000000000000000000000090047f0100000000000000000000000000000000000000000000000000000000000000028383806001019450815181101515612a8657fe5b9060200101907effffffffffffffffffffffffffffffffffffffffffffffffffffffffffffff1916908160001a9053508080600101915050612a10565b600090505b8751811015612b7b578781815181101515612adf57fe5b9060200101517f010000000000000000000000000000000000000000000000000000000000000090047f0100000000000000000000000000000000000000000000000000000000000000028383806001019450815181101515612b3e57fe5b9060200101907effffffffffffffffffffffffffffffffffffffffffffffffffffffffffffff1916908160001a9053508080600101915050612ac8565b600090505b8651811015612c33578681815181101515612b9757fe5b9060200101517f010000000000000000000000000000000000000000000000000000000000000090047f0100000000000000000000000000000000000000000000000000000000000000028383806001019450815181101515612bf657fe5b9060200101907effffffffffffffffffffffffffffffffffffffffffffffffffffffffffffff1916908160001a9053508080600101915050612b80565b600090505b8551811015612ceb578581815181101515612c4f57fe5b9060200101517f010000000000000000000000000000000000000000000000000000000000000090047f0100000000000000000000000000000000000000000000000000000000000000028383806001019450815181101515612cae57fe5b9060200101907effffffffffffffffffffffffffffffffffffffffffffffffffffffffffffff1916908160001a9053508080600101915050612c38565b600090505b8451811015612da3578481815181101515612d0757fe5b9060200101517f010000000000000000000000000000000000000000000000000000000000000090047f0100000000000000000000000000000000000000000000000000000000000000028383806001019450815181101515612d6657fe5b9060200101907effffffffffffffffffffffffffffffffffffffffffffffffffffffffffffff1916908160001a9053508080600101915050612cf0565b82995050505050505050505095945050505050565b8060029080519060200190612dce9291906130c6565b5050565b6000606060008060008693506000925060009150600090505b83518110156130a75760307f0100000000000000000000000000000000000000000000000000000000000000028482815181101515612e2657fe5b9060200101517f010000000000000000000000000000000000000000000000000000000000000090047f0100000000000000000000000000000000000000000000000000000000000000027effffffffffffffffffffffffffffffffffffffffffffffffffffffffffffff191610158015612f3e575060397f0100000000000000000000000000000000000000000000000000000000000000028482815181101515612ece57fe5b9060200101517f010000000000000000000000000000000000000000000000000000000000000090047f0100000000000000000000000000000000000000000000000000000000000000027effffffffffffffffffffffffffffffffffffffffffffffffffffffffffffff191611155b15612fef578115612f61576000861415612f57576130a7565b8580600190039650505b600a8302925060308482815181101515612f7757fe5b9060200101517f010000000000000000000000000000000000000000000000000000000000000090047f0100000000000000000000000000000000000000000000000000000000000000027f01000000000000000000000000000000000000000000000000000000000000009004038301925061309a565b602e7f010000000000000000000000000000000000000000000000000000000000000002848281518110151561302157fe5b9060200101517f010000000000000000000000000000000000000000000000000000000000000090047f0100000000000000000000000000000000000000000000000000000000000000027effffffffffffffffffffffffffffffffffffffffffffffffffffffffffffff1916141561309957600191505b5b8080600101915050612deb565b60008611156130b95785600a0a830292505b8294505050505092915050565b828054600181600116156101000203166002900490600052602060002090601f016020900481019282601f1061310757805160ff1916838001178555613135565b82800160010185558215613135579182015b82811115613134578251825591602001919060010190613119565b5b5090506131429190613195565b5090565b60c060405190810160405280600073ffffffffffffffffffffffffffffffffffffffff168152602001600081526020016000815260200160008152602001600081526020016000151581525090565b6131b791905b808211156131b357600081600090555060010161319b565b5090565b905600a165627a7a723058202f211e5d5aef27f38fc5547de2f85c1ac5a81b1647a9e5aaebbc3b4122ba67e20029",
  "source": "pragma solidity ^0.4.4;\n\nimport \"./oraclizeAPI.sol\";\n\nimport \"./Ownable.sol\";\nimport \"./SafeMath.sol\";\n\ncontract Dice is usingOraclize, Ownable {\n  using SafeMath for uint256;\n\n  uint256 constant INVALID_ROLL = 0;\n\n  // Depends on slider\n  uint256 constant MIN_ROLL = 1;\n  uint256 constant MAX_ROLL = 100;\n  bytes32 constant DEFAULT_BYTES32 = 0x0000000000000000000000000000000000000000000000000000000000000000;\n\n  // This governs how much gas we'll have for the oraclize callback\n  uint256 constant ORACLIZE_GAS_COST = 500000;\n\n  struct GameData {\n    address player;\n    uint256 odds; // represents the roll under which all winning rolls must lie\n    uint256 trueWager;\n    uint256 roll; // only populated when game is complete\n    uint256 maxProfit; // max profit calculated at roll time\n    bool active;\n  }\n\n  // TODO: Un-public these things after I'm done debugging\n  mapping(bytes32 => GameData) public _queryToGameData;\n  mapping(address => bytes32) public _playerToCurrentQuery;\n\n  // TODO: Remove! or make private\n  mapping(address => uint256) public _playerToPayouts;\n\n  // TODO: Remove!\n  string public lastQuery;\n  string public lastResult;\n  uint256 public lastPayout;\n\n  // For display purposes only\n  uint256 public completedGames = 0;\n\n  event GameCompleted(\n    address indexed player,\n    bytes32 indexed qId,\n    uint256 roll\n  );\n\n  event GameSubmitted(\n    address indexed player,\n    bytes32 indexed qId,\n    uint256 odds,\n    uint256 trueWager\n  );\n\n  event PlayerPaidOut(\n    address indexed player,\n    uint256 payout\n  );\n\n  constructor() public {}\n\n  ////////////////\n  // ADMIN ACTIONS\n  ////////////////\n\n  function withdrawBalance() external onlyOwner {\n    uint256 balance = address(this).balance;\n\n    // No withdrawal necessary if <= 0 balance\n    require(balance > 0);\n\n    msg.sender.transfer(balance);\n  }\n\n  // TODO: Access restrict this to whitelist\n  function addBalance() external payable {\n  }\n\n  ///////////////\n  // USER ACTIONS\n  ///////////////\n\n  // NOTE: Currently 10% of contract balance. Can be tuned\n  function getMaxProfit() public view returns(uint256) {\n    return address(this).balance / 10;\n  }\n\n  function rollDice(uint256 odds) external payable {\n    uint256 queryPrice = oraclize_getPrice(\"URL\");\n\n    // player's wager\n    require(msg.value > queryPrice);\n    uint256 wagerAfterQuery = msg.value - queryPrice;\n    uint256 fee = _computeRollFee(wagerAfterQuery);\n    uint256 trueWager = wagerAfterQuery - fee;\n\n    // NOTE: Can probably simplify this to something static\n    string memory queryStr = _getQueryStr(MIN_ROLL, MAX_ROLL);\n\n    // TODO: When we need to encrypt random.org encryption key, this will need to become a 'nested' query\n    bytes32 qId = oraclize_query(\"URL\", queryStr, ORACLIZE_GAS_COST);\n\n    lastQuery = queryStr;\n\n    emit GameSubmitted(msg.sender, qId, odds, trueWager);\n\n    _queryToGameData[qId] = GameData(\n      msg.sender,\n      odds,\n      trueWager,\n      INVALID_ROLL,\n      getMaxProfit(),\n      true\n    );\n    _playerToCurrentQuery[msg.sender] = qId;\n  }\n\n  // NOTE: 1%, can be modified!\n  function _computeRollFee(uint256 wagerAfterQuery) private pure returns (uint256) {\n    return SafeMath.div(wagerAfterQuery, 100);\n  }\n\n  // NOTE: Doesn't use API key so that we don't have to do all the fancy encryption stuff.\n  function _getQueryStr(uint256 min, uint256 max) internal returns(string) {\n    // TODO: encrypted query...\n    //string memory newStr = strConcat(\"[URL] ['json(https://api.random.org/json-rpc/1/invoke).result.random[\\\"serialNumber\\\",\\\"data\\\"]', '\\\\n{\\\"jsonrpc\\\":\\\"2.0\\\",\\\"method\\\":\\\"generateSignedIntegers\\\",\\\"params\\\":{\\\"apiKey\\\":${[decrypt] BKg3TCs7lkzNr1kR6pxjPCM2SOejcFojUPMTOsBkC/47HHPf1sP2oxVLTjNBu+slR9SgZyqDtjVOV5Yzg12iUkbubp0DpcjCEdeJTHnGwC6gD729GUVoGvo96huxwRoZlCjYO80rWq2WGYoR/LC3WampDuvv2Bo=},\\\"n\\\":1,\\\"min\\\":\", uint2str(min), \"\\\"max\\\"\": uint2str(max), \"\\\"replacement\\\":true,\\\"base\\\":10${[identity] \\\"}\\\"},\\\"id\\\":1${[identity] \\\"}\\\"}']\")\n\n    return strConcat(\"https://www.random.org/integers/?num=1&min=\", uint2str(min), \"&max=\", uint2str(max), \"&col=1&base=10&format=plain&rnd=new\");\n  }\n\n  function __callback(bytes32 qId, string result, bytes proof) public {\n    // Must be called by oraclize\n    require(msg.sender == oraclize_cbAddress());\n\n    // Game must not have been cancelled or completed\n    require(_queryToGameData[qId].active);\n\n    // TODO: Check authenticity proof\n\n    // TODO: Remove\n    lastResult = result;\n\n    // Payout player\n    uint256 roll = _resultToRoll(result);\n    uint256 payout = _calculatePayout(qId, roll);\n    address player = _queryToGameData[qId].player;\n    if (payout > 0) {\n      // TODO: emit an event!\n      player.transfer(payout);\n      emit PlayerPaidOut(player, payout);\n    }\n\n    // TODO: Remove\n    lastPayout = payout;\n\n    // TODO: Delete game in the future to save space\n    _queryToGameData[qId].roll = roll;\n    _queryToGameData[qId].active = false;\n    _playerToCurrentQuery[player] = DEFAULT_BYTES32;\n\n    // TODO: Remove\n    _playerToPayouts[player] += payout;\n\n    // game completed!\n    completedGames = completedGames.add(1);\n    emit GameCompleted(_queryToGameData[qId].player, qId, roll);\n  }\n\n  function _calculatePayout(bytes32 qId, uint256 roll) internal view returns(uint256) {\n    GameData memory game = _queryToGameData[qId];\n\n    uint256 odds = game.odds;\n    if (roll > odds) {\n      return 0;\n    } else {\n      uint256 wager = game.trueWager;\n      uint256 maxProfit = game.maxProfit;\n\n      // payout = wager + winnings\n      // winnings = (100 - x) / x\n      uint256 invOdds = MAX_ROLL.sub(odds);\n      uint256 winnings = invOdds.div(odds);\n      uint256 defaultWinnings = wager.add(winnings);\n\n      uint256 availableBalance = _getAvailableBalance() ;\n      if (defaultWinnings > availableBalance) {\n        // NOTE: Probably should be less than all of the available balance!\n        return availableBalance;\n      }\n\n      else if (winnings > maxProfit) {\n        return wager.add(maxProfit);\n      }\n\n      else {\n        return defaultWinnings;\n      }\n    }\n  }\n\n  function _getAvailableBalance() internal returns(uint256) {\n    return address(this).balance;\n  }\n\n  function _resultToRoll(string result) internal returns(uint256) {\n    return parseInt(result);\n  }\n\n  function hasActiveRoll() external view returns(bool) {\n    return _playerToCurrentQuery[msg.sender] != DEFAULT_BYTES32;\n  }\n\n  function cancelActiveRoll() external {\n    bytes32 qId = _playerToCurrentQuery[msg.sender];\n\n    // Must have an active roll\n    require(qId != DEFAULT_BYTES32);\n\n    // Sanity check that game has same player associated with it\n    require(_queryToGameData[qId].player == msg.sender);\n\n    // cancel role\n    _queryToGameData[qId].active = false;\n    _playerToCurrentQuery[msg.sender] = DEFAULT_BYTES32;\n\n    uint256 refund = _queryToGameData[qId].trueWager;\n    uint256 availableBalance = _getAvailableBalance();\n\n    if (refund > availableBalance) {\n      // NOTE: Probably should be less than all of the available balance!\n      _queryToGameData[qId].player.transfer(availableBalance);\n    } else {\n      _queryToGameData[qId].player.transfer(refund);\n    }\n  }\n}\n",
  "sourcePath": "/Users/lakshmansankar/src/etherdice/contracts/Dice.sol",
  "compiler": {
    "name": "solc",
    "version": "0.4.23+commit.124ca40d.Emscripten.clang"
  },
  "schemaVersion": "2.0.0",
  "updatedAt": "2018-05-04T02:24:31.415Z"
}