{
  "contractName": "Dice",
  "abi": [
    {
      "constant": true,
      "inputs": [],
      "name": "maxBet",
      "outputs": [
        {
          "name": "",
          "type": "uint256"
        }
      ],
      "payable": false,
      "stateMutability": "view",
      "type": "function"
    },
    {
      "constant": true,
      "inputs": [],
      "name": "completedGames",
      "outputs": [
        {
          "name": "",
          "type": "uint256"
        }
      ],
      "payable": false,
      "stateMutability": "view",
      "type": "function"
    },
    {
      "constant": true,
      "inputs": [],
      "name": "owner",
      "outputs": [
        {
          "name": "",
          "type": "address"
        }
      ],
      "payable": false,
      "stateMutability": "view",
      "type": "function"
    },
    {
      "constant": false,
      "inputs": [
        {
          "name": "newOwner",
          "type": "address"
        }
      ],
      "name": "transferOwnership",
      "outputs": [],
      "payable": false,
      "stateMutability": "nonpayable",
      "type": "function"
    },
    {
      "inputs": [],
      "payable": false,
      "stateMutability": "nonpayable",
      "type": "constructor"
    },
    {
      "anonymous": false,
      "inputs": [
        {
          "indexed": true,
          "name": "player",
          "type": "address"
        },
        {
          "indexed": false,
          "name": "wager",
          "type": "uint256"
        },
        {
          "indexed": false,
          "name": "trueWager",
          "type": "uint256"
        },
        {
          "indexed": false,
          "name": "odds",
          "type": "uint256"
        },
        {
          "indexed": false,
          "name": "roll",
          "type": "uint256"
        },
        {
          "indexed": false,
          "name": "totalPayout",
          "type": "uint256"
        }
      ],
      "name": "RollCompleted",
      "type": "event"
    },
    {
      "anonymous": false,
      "inputs": [
        {
          "indexed": true,
          "name": "player",
          "type": "address"
        },
        {
          "indexed": false,
          "name": "odds",
          "type": "uint256"
        },
        {
          "indexed": false,
          "name": "trueWager",
          "type": "uint256"
        }
      ],
      "name": "RollSubmitted",
      "type": "event"
    },
    {
      "anonymous": false,
      "inputs": [
        {
          "indexed": true,
          "name": "player",
          "type": "address"
        },
        {
          "indexed": false,
          "name": "payout",
          "type": "uint256"
        }
      ],
      "name": "PlayerPaidOut",
      "type": "event"
    },
    {
      "anonymous": false,
      "inputs": [
        {
          "indexed": true,
          "name": "previousOwner",
          "type": "address"
        },
        {
          "indexed": true,
          "name": "newOwner",
          "type": "address"
        }
      ],
      "name": "OwnershipTransferred",
      "type": "event"
    },
    {
      "constant": false,
      "inputs": [],
      "name": "withdrawBalance",
      "outputs": [],
      "payable": false,
      "stateMutability": "nonpayable",
      "type": "function"
    },
    {
      "constant": false,
      "inputs": [],
      "name": "addBalance",
      "outputs": [],
      "payable": true,
      "stateMutability": "payable",
      "type": "function"
    },
    {
      "constant": false,
      "inputs": [
        {
          "name": "newMax",
          "type": "uint256"
        }
      ],
      "name": "setMaxBet",
      "outputs": [],
      "payable": false,
      "stateMutability": "nonpayable",
      "type": "function"
    },
    {
      "constant": true,
      "inputs": [],
      "name": "getMaxProfit",
      "outputs": [
        {
          "name": "",
          "type": "uint256"
        }
      ],
      "payable": false,
      "stateMutability": "view",
      "type": "function"
    },
    {
      "constant": false,
      "inputs": [
        {
          "name": "odds",
          "type": "uint256"
        }
      ],
      "name": "rollDice",
      "outputs": [],
      "payable": true,
      "stateMutability": "payable",
      "type": "function"
    },
    {
      "constant": false,
      "inputs": [
        {
          "name": "myid",
          "type": "bytes32"
        },
        {
          "name": "result",
          "type": "string"
        }
      ],
      "name": "__callback",
      "outputs": [],
      "payable": false,
      "stateMutability": "nonpayable",
      "type": "function"
    },
    {
      "constant": false,
      "inputs": [
        {
          "name": "qId",
          "type": "bytes32"
        },
        {
          "name": "result",
          "type": "string"
        },
        {
          "name": "proof",
          "type": "bytes"
        }
      ],
      "name": "__callback",
      "outputs": [],
      "payable": false,
      "stateMutability": "nonpayable",
      "type": "function"
    }
  ],
  "bytecode": "0x60806040526706f05b59d3b20000600655600060085534801561002157600080fd5b5033600560006101000a81548173ffffffffffffffffffffffffffffffffffffffff021916908373ffffffffffffffffffffffffffffffffffffffff160217905550612a15806100726000396000f3006080604052600436106100af576000357c0100000000000000000000000000000000000000000000000000000000900463ffffffff16806327dc297e146100b45780632e5b21681461012b57806338bbfa50146101565780635edfd788146102135780635fd8c7101461023e578063881eff1e146102555780638da5cb5b14610282578063acfff377146102d9578063b163cc38146102f9578063ec062ac014610303578063f2fde38b1461032e575b600080fd5b3480156100c057600080fd5b506101296004803603810190808035600019169060200190929190803590602001908201803590602001908080601f0160208091040260200160405190810160405280939291908181526020018383808284378201915050505050509192919290505050610371565b005b34801561013757600080fd5b506101406103b4565b6040518082815260200191505060405180910390f35b34801561016257600080fd5b506102116004803603810190808035600019169060200190929190803590602001908201803590602001908080601f0160208091040260200160405190810160405280939291908181526020018383808284378201915050505050509192919290803590602001908201803590602001908080601f01602080910402602001604051908101604052809392919081815260200183838082843782019150505050505091929192905050506103ba565b005b34801561021f57600080fd5b50610228610642565b6040518082815260200191505060405180910390f35b34801561024a57600080fd5b50610253610648565b005b34801561026157600080fd5b5061028060048036038101908080359060200190929190505050610719565b005b34801561028e57600080fd5b5061029761077f565b604051808273ffffffffffffffffffffffffffffffffffffffff1673ffffffffffffffffffffffffffffffffffffffff16815260200191505060405180910390f35b6102f7600480360381019080803590602001909291905050506107a5565b005b6103016109d8565b005b34801561030f57600080fd5b506103186109da565b6040518082815260200191505060405180910390f35b34801561033a57600080fd5b5061036f600480360381019080803573ffffffffffffffffffffffffffffffffffffffff169060200190929190505050610a05565b005b6103b0828260006040519080825280601f01601f1916602001820160405280156103aa5781602001602082028038833980820191505090505b506103ba565b5050565b60065481565b6103c26128f7565b60008060006103cf610b5d565b73ffffffffffffffffffffffffffffffffffffffff163373ffffffffffffffffffffffffffffffffffffffff1614151561040857600080fd5b60076000886000191660001916815260200190815260200160002060c060405190810160405290816000820160009054906101000a900473ffffffffffffffffffffffffffffffffffffffff1673ffffffffffffffffffffffffffffffffffffffff1673ffffffffffffffffffffffffffffffffffffffff168152602001600182015481526020016002820154815260200160038201548152602001600482015481526020016005820154815250509350600084608001511415156104cc57600080fd5b6104d586610ebb565b9250600083141515156104e757600080fd5b6104f18784610ecd565b9150836000015190506000821115610599578073ffffffffffffffffffffffffffffffffffffffff166108fc839081150290604051600060405180830381858888f19350505050158015610549573d6000803e3d6000fd5b508073ffffffffffffffffffffffffffffffffffffffff167fc458bc9f00c29ca11ecdfa3e970a6b5fe084d6cb81b95e63c9bb2eba922bf473836040518082815260200191505060405180910390a25b828460800181815250506105b9600160085461107290919063ffffffff16565b6008819055508073ffffffffffffffffffffffffffffffffffffffff167f7bde31303f1057cf6c3fb7ff77b59078bc7d5e1e7dcc6a94b85b46e173a923698560400151866060015187602001518787604051808681526020018581526020018481526020018381526020018281526020019550505050505060405180910390a250505050505050565b60085481565b6000600560009054906101000a900473ffffffffffffffffffffffffffffffffffffffff1673ffffffffffffffffffffffffffffffffffffffff163373ffffffffffffffffffffffffffffffffffffffff161415156106a657600080fd5b3073ffffffffffffffffffffffffffffffffffffffff163190506000811115156106cf57600080fd5b3373ffffffffffffffffffffffffffffffffffffffff166108fc829081150290604051600060405180830381858888f19350505050158015610715573d6000803e3d6000fd5b5050565b600560009054906101000a900473ffffffffffffffffffffffffffffffffffffffff1673ffffffffffffffffffffffffffffffffffffffff163373ffffffffffffffffffffffffffffffffffffffff1614151561077557600080fd5b8060068190555050565b600560009054906101000a900473ffffffffffffffffffffffffffffffffffffffff1681565b6000806000806060600060065434111515156107c057600080fd5b6107fe6040805190810160405280600381526020017f55524c0000000000000000000000000000000000000000000000000000000000815250611090565b9550853411151561080e57600080fd5b610821863461146090919063ffffffff16565b945061082c85611479565b9350610841848661146090919063ffffffff16565b925061084f6001606461148d565b91506108946040805190810160405280600381526020017f55524c0000000000000000000000000000000000000000000000000000000000815250836207a1206115a1565b90503373ffffffffffffffffffffffffffffffffffffffff167feb572415c627b25eebc7b29cbbef1a9608184cd772f28e749b5859267348ad078885604051808381526020018281526020019250505060405180910390a260c0604051908101604052803373ffffffffffffffffffffffffffffffffffffffff168152602001888152602001348152602001848152602001600081526020016109356109da565b81525060076000836000191660001916815260200190815260200160002060008201518160000160006101000a81548173ffffffffffffffffffffffffffffffffffffffff021916908373ffffffffffffffffffffffffffffffffffffffff1602179055506020820151816001015560408201518160020155606082015181600301556080820151816004015560a0820151816005015590505050505050505050565b565b600060143073ffffffffffffffffffffffffffffffffffffffff16318115156109ff57fe5b04905090565b600560009054906101000a900473ffffffffffffffffffffffffffffffffffffffff1673ffffffffffffffffffffffffffffffffffffffff163373ffffffffffffffffffffffffffffffffffffffff16141515610a6157600080fd5b600073ffffffffffffffffffffffffffffffffffffffff168173ffffffffffffffffffffffffffffffffffffffff1614151515610a9d57600080fd5b8073ffffffffffffffffffffffffffffffffffffffff16600560009054906101000a900473ffffffffffffffffffffffffffffffffffffffff1673ffffffffffffffffffffffffffffffffffffffff167f8be0079c531659141344cd1fd0a4f28419497f9722a3daafe3b4186f6b6457e060405160405180910390a380600560006101000a81548173ffffffffffffffffffffffffffffffffffffffff021916908373ffffffffffffffffffffffffffffffffffffffff16021790555050565b6000806000809054906101000a900473ffffffffffffffffffffffffffffffffffffffff1673ffffffffffffffffffffffffffffffffffffffff161480610bcd57506000610bcb6000809054906101000a900473ffffffffffffffffffffffffffffffffffffffff16611b51565b145b15610bde57610bdc6000611b5c565b505b6000809054906101000a900473ffffffffffffffffffffffffffffffffffffffff1673ffffffffffffffffffffffffffffffffffffffff166338cc48316040518163ffffffff167c0100000000000000000000000000000000000000000000000000000000028152600401602060405180830381600087803b158015610c6357600080fd5b505af1158015610c77573d6000803e3d6000fd5b505050506040513d6020811015610c8d57600080fd5b810190808051906020019092919050505073ffffffffffffffffffffffffffffffffffffffff16600160009054906101000a900473ffffffffffffffffffffffffffffffffffffffff1673ffffffffffffffffffffffffffffffffffffffff16141515610df5576000809054906101000a900473ffffffffffffffffffffffffffffffffffffffff1673ffffffffffffffffffffffffffffffffffffffff166338cc48316040518163ffffffff167c0100000000000000000000000000000000000000000000000000000000028152600401602060405180830381600087803b158015610d7957600080fd5b505af1158015610d8d573d6000803e3d6000fd5b505050506040513d6020811015610da357600080fd5b8101908080519060200190929190505050600160006101000a81548173ffffffffffffffffffffffffffffffffffffffff021916908373ffffffffffffffffffffffffffffffffffffffff1602179055505b600160009054906101000a900473ffffffffffffffffffffffffffffffffffffffff1673ffffffffffffffffffffffffffffffffffffffff1663c281d19e6040518163ffffffff167c0100000000000000000000000000000000000000000000000000000000028152600401602060405180830381600087803b158015610e7b57600080fd5b505af1158015610e8f573d6000803e3d6000fd5b505050506040513d6020811015610ea557600080fd5b8101908080519060200190929190505050905090565b6000610ec682611fed565b9050919050565b6000610ed76128f7565b600080600080600080600080600760008d6000191660001916815260200190815260200160002060c060405190810160405290816000820160009054906101000a900473ffffffffffffffffffffffffffffffffffffffff1673ffffffffffffffffffffffffffffffffffffffff1673ffffffffffffffffffffffffffffffffffffffff16815260200160018201548152602001600282015481526020016003820154815260200160048201548152602001600582015481525050985088602001519750878b101515610fad5760009950611063565b886060015196508860a001519550610fcf60018961146090919063ffffffff16565b9450610fe585606461146090919063ffffffff16565b935061100c85610ffe868a61200190919063ffffffff16565b61203c90919063ffffffff16565b9250611021838861107290919063ffffffff16565b915061102b612052565b90508583111561104f57611048868861107290919063ffffffff16565b9950611063565b8082111561105f57809950611063565b8199505b50505050505050505092915050565b600080828401905083811015151561108657fe5b8091505092915050565b6000806000809054906101000a900473ffffffffffffffffffffffffffffffffffffffff1673ffffffffffffffffffffffffffffffffffffffff161480611100575060006110fe6000809054906101000a900473ffffffffffffffffffffffffffffffffffffffff16611b51565b145b156111115761110f6000611b5c565b505b6000809054906101000a900473ffffffffffffffffffffffffffffffffffffffff1673ffffffffffffffffffffffffffffffffffffffff166338cc48316040518163ffffffff167c0100000000000000000000000000000000000000000000000000000000028152600401602060405180830381600087803b15801561119657600080fd5b505af11580156111aa573d6000803e3d6000fd5b505050506040513d60208110156111c057600080fd5b810190808051906020019092919050505073ffffffffffffffffffffffffffffffffffffffff16600160009054906101000a900473ffffffffffffffffffffffffffffffffffffffff1673ffffffffffffffffffffffffffffffffffffffff16141515611328576000809054906101000a900473ffffffffffffffffffffffffffffffffffffffff1673ffffffffffffffffffffffffffffffffffffffff166338cc48316040518163ffffffff167c0100000000000000000000000000000000000000000000000000000000028152600401602060405180830381600087803b1580156112ac57600080fd5b505af11580156112c0573d6000803e3d6000fd5b505050506040513d60208110156112d657600080fd5b8101908080519060200190929190505050600160006101000a81548173ffffffffffffffffffffffffffffffffffffffff021916908373ffffffffffffffffffffffffffffffffffffffff1602179055505b600160009054906101000a900473ffffffffffffffffffffffffffffffffffffffff1673ffffffffffffffffffffffffffffffffffffffff1663524f3889836040518263ffffffff167c01000000000000000000000000000000000000000000000000000000000281526004018080602001828103825283818151815260200191508051906020019080838360005b838110156113d25780820151818401526020810190506113b7565b50505050905090810190601f1680156113ff5780820380516001836020036101000a031916815260200191505b5092505050602060405180830381600087803b15801561141e57600080fd5b505af1158015611432573d6000803e3d6000fd5b505050506040513d602081101561144857600080fd5b81019080805190602001909291905050509050919050565b600082821115151561146e57fe5b818303905092915050565b600061148682606461203c565b9050919050565b6060611599606060405190810160405280602b81526020017f68747470733a2f2f7777772e72616e646f6d2e6f72672f696e7465676572732f81526020017f3f6e756d3d31266d696e3d0000000000000000000000000000000000000000008152506114f88561207d565b6040805190810160405280600581526020017f266d61783d0000000000000000000000000000000000000000000000000000008152506115378661207d565b606060405190810160405280602381526020017f26636f6c3d3126626173653d313026666f726d61743d706c61696e26726e643d81526020017f6e657700000000000000000000000000000000000000000000000000000000008152506121d4565b905092915050565b60008060008060009054906101000a900473ffffffffffffffffffffffffffffffffffffffff1673ffffffffffffffffffffffffffffffffffffffff161480611613575060006116116000809054906101000a900473ffffffffffffffffffffffffffffffffffffffff16611b51565b145b15611624576116226000611b5c565b505b6000809054906101000a900473ffffffffffffffffffffffffffffffffffffffff1673ffffffffffffffffffffffffffffffffffffffff166338cc48316040518163ffffffff167c0100000000000000000000000000000000000000000000000000000000028152600401602060405180830381600087803b1580156116a957600080fd5b505af11580156116bd573d6000803e3d6000fd5b505050506040513d60208110156116d357600080fd5b810190808051906020019092919050505073ffffffffffffffffffffffffffffffffffffffff16600160009054906101000a900473ffffffffffffffffffffffffffffffffffffffff1673ffffffffffffffffffffffffffffffffffffffff1614151561183b576000809054906101000a900473ffffffffffffffffffffffffffffffffffffffff1673ffffffffffffffffffffffffffffffffffffffff166338cc48316040518163ffffffff167c0100000000000000000000000000000000000000000000000000000000028152600401602060405180830381600087803b1580156117bf57600080fd5b505af11580156117d3573d6000803e3d6000fd5b505050506040513d60208110156117e957600080fd5b8101908080519060200190929190505050600160006101000a81548173ffffffffffffffffffffffffffffffffffffffff021916908373ffffffffffffffffffffffffffffffffffffffff1602179055505b600160009054906101000a900473ffffffffffffffffffffffffffffffffffffffff1673ffffffffffffffffffffffffffffffffffffffff16632ef3accc86856040518363ffffffff167c01000000000000000000000000000000000000000000000000000000000281526004018080602001838152602001828103825284818151815260200191508051906020019080838360005b838110156118ec5780820151818401526020810190506118d1565b50505050905090810190601f1680156119195780820380516001836020036101000a031916815260200191505b509350505050602060405180830381600087803b15801561193957600080fd5b505af115801561194d573d6000803e3d6000fd5b505050506040513d602081101561196357600080fd5b81019080805190602001909291905050509050823a02670de0b6b3a7640000018111156119965760006001029150611b49565b600160009054906101000a900473ffffffffffffffffffffffffffffffffffffffff1673ffffffffffffffffffffffffffffffffffffffff1663c51be90f8260008888886040518663ffffffff167c0100000000000000000000000000000000000000000000000000000000028152600401808581526020018060200180602001848152602001838103835286818151815260200191508051906020019080838360005b83811015611a55578082015181840152602081019050611a3a565b50505050905090810190601f168015611a825780820380516001836020036101000a031916815260200191505b50838103825285818151815260200191508051906020019080838360005b83811015611abb578082015181840152602081019050611aa0565b50505050905090810190601f168015611ae85780820380516001836020036101000a031916815260200191505b5096505050505050506020604051808303818588803b158015611b0a57600080fd5b505af1158015611b1e573d6000803e3d6000fd5b50505050506040513d6020811015611b3557600080fd5b810190808051906020019092919050505091505b509392505050565b6000813b9050919050565b600080611b7c731d3b2638a7cc9f2cb3d298a3da7a90b67e5506ed611b51565b1115611c1d57731d3b2638a7cc9f2cb3d298a3da7a90b67e5506ed6000806101000a81548173ffffffffffffffffffffffffffffffffffffffff021916908373ffffffffffffffffffffffffffffffffffffffff160217905550611c146040805190810160405280600b81526020017f6574685f6d61696e6e65740000000000000000000000000000000000000000008152506125e9565b60019050611fe8565b6000611c3c73c03a2615d5efaf5f49f60b7bb6583eaec212fdf1611b51565b1115611cdd5773c03a2615d5efaf5f49f60b7bb6583eaec212fdf16000806101000a81548173ffffffffffffffffffffffffffffffffffffffff021916908373ffffffffffffffffffffffffffffffffffffffff160217905550611cd46040805190810160405280600c81526020017f6574685f726f707374656e3300000000000000000000000000000000000000008152506125e9565b60019050611fe8565b6000611cfc73b7a07bcf2ba2f2703b24c0691b5278999c59ac7e611b51565b1115611d9d5773b7a07bcf2ba2f2703b24c0691b5278999c59ac7e6000806101000a81548173ffffffffffffffffffffffffffffffffffffffff021916908373ffffffffffffffffffffffffffffffffffffffff160217905550611d946040805190810160405280600981526020017f6574685f6b6f76616e00000000000000000000000000000000000000000000008152506125e9565b60019050611fe8565b6000611dbc73146500cfd35b22e4a392fe0adc06de1a1368ed48611b51565b1115611e5d5773146500cfd35b22e4a392fe0adc06de1a1368ed486000806101000a81548173ffffffffffffffffffffffffffffffffffffffff021916908373ffffffffffffffffffffffffffffffffffffffff160217905550611e546040805190810160405280600b81526020017f6574685f72696e6b6562790000000000000000000000000000000000000000008152506125e9565b60019050611fe8565b6000611e7c736f485c8bf6fc43ea212e93bbf8ce046c7f1cb475611b51565b1115611edf57736f485c8bf6fc43ea212e93bbf8ce046c7f1cb4756000806101000a81548173ffffffffffffffffffffffffffffffffffffffff021916908373ffffffffffffffffffffffffffffffffffffffff16021790555060019050611fe8565b6000611efe7320e12a1f859b3feae5fb2a0a32c18f5a65555bbf611b51565b1115611f61577320e12a1f859b3feae5fb2a0a32c18f5a65555bbf6000806101000a81548173ffffffffffffffffffffffffffffffffffffffff021916908373ffffffffffffffffffffffffffffffffffffffff16021790555060019050611fe8565b6000611f807351efaf4c8b3c9afbd5ab9f4bbc82784ab6ef8faa611b51565b1115611fe3577351efaf4c8b3c9afbd5ab9f4bbc82784ab6ef8faa6000806101000a81548173ffffffffffffffffffffffffffffffffffffffff021916908373ffffffffffffffffffffffffffffffffffffffff16021790555060019050611fe8565b600090505b919050565b6000611ffa826000612603565b9050919050565b60008060008414156120165760009150612035565b828402905082848281151561202757fe5b0414151561203157fe5b8091505b5092915050565b6000818381151561204957fe5b04905092915050565b6000600a3073ffffffffffffffffffffffffffffffffffffffff163181151561207757fe5b04905090565b606060008060606000808614156120cb576040805190810160405280600181526020017f300000000000000000000000000000000000000000000000000000000000000081525094506121cb565b8593505b6000841415156120f5578280600101935050600a848115156120ed57fe5b0493506120cf565b826040519080825280601f01601f1916602001820160405280156121285781602001602082028038833980820191505090505b5091506001830390505b6000861415156121c757600a8681151561214857fe5b066030017f01000000000000000000000000000000000000000000000000000000000000000282828060019003935081518110151561218357fe5b9060200101907effffffffffffffffffffffffffffffffffffffffffffffffffffffffffffff1916908160001a905350600a868115156121bf57fe5b049550612132565b8194505b50505050919050565b6060806060806060806060806000808e98508d97508c96508b95508a94508451865188518a518c51010101016040519080825280601f01601f1916602001820160405280156122325781602001602082028038833980820191505090505b50935083925060009150600090505b88518110156122f457888181518110151561225857fe5b9060200101517f010000000000000000000000000000000000000000000000000000000000000090047f01000000000000000000000000000000000000000000000000000000000000000283838060010194508151811015156122b757fe5b9060200101907effffffffffffffffffffffffffffffffffffffffffffffffffffffffffffff1916908160001a9053508080600101915050612241565b600090505b87518110156123ac57878181518110151561231057fe5b9060200101517f010000000000000000000000000000000000000000000000000000000000000090047f010000000000000000000000000000000000000000000000000000000000000002838380600101945081518110151561236f57fe5b9060200101907effffffffffffffffffffffffffffffffffffffffffffffffffffffffffffff1916908160001a90535080806001019150506122f9565b600090505b86518110156124645786818151811015156123c857fe5b9060200101517f010000000000000000000000000000000000000000000000000000000000000090047f010000000000000000000000000000000000000000000000000000000000000002838380600101945081518110151561242757fe5b9060200101907effffffffffffffffffffffffffffffffffffffffffffffffffffffffffffff1916908160001a90535080806001019150506123b1565b600090505b855181101561251c57858181518110151561248057fe5b9060200101517f010000000000000000000000000000000000000000000000000000000000000090047f01000000000000000000000000000000000000000000000000000000000000000283838060010194508151811015156124df57fe5b9060200101907effffffffffffffffffffffffffffffffffffffffffffffffffffffffffffff1916908160001a9053508080600101915050612469565b600090505b84518110156125d457848181518110151561253857fe5b9060200101517f010000000000000000000000000000000000000000000000000000000000000090047f010000000000000000000000000000000000000000000000000000000000000002838380600101945081518110151561259757fe5b9060200101907effffffffffffffffffffffffffffffffffffffffffffffffffffffffffffff1916908160001a9053508080600101915050612521565b82995050505050505050505095945050505050565b80600290805190602001906125ff929190612944565b5050565b6000606060008060008693506000925060009150600090505b83518110156128d85760307f010000000000000000000000000000000000000000000000000000000000000002848281518110151561265757fe5b9060200101517f010000000000000000000000000000000000000000000000000000000000000090047f0100000000000000000000000000000000000000000000000000000000000000027effffffffffffffffffffffffffffffffffffffffffffffffffffffffffffff19161015801561276f575060397f01000000000000000000000000000000000000000000000000000000000000000284828151811015156126ff57fe5b9060200101517f010000000000000000000000000000000000000000000000000000000000000090047f0100000000000000000000000000000000000000000000000000000000000000027effffffffffffffffffffffffffffffffffffffffffffffffffffffffffffff191611155b15612820578115612792576000861415612788576128d8565b8580600190039650505b600a83029250603084828151811015156127a857fe5b9060200101517f010000000000000000000000000000000000000000000000000000000000000090047f0100000000000000000000000000000000000000000000000000000000000000027f0100000000000000000000000000000000000000000000000000000000000000900403830192506128cb565b602e7f010000000000000000000000000000000000000000000000000000000000000002848281518110151561285257fe5b9060200101517f010000000000000000000000000000000000000000000000000000000000000090047f0100000000000000000000000000000000000000000000000000000000000000027effffffffffffffffffffffffffffffffffffffffffffffffffffffffffffff191614156128ca57600191505b5b808060010191505061261c565b60008611156128ea5785600a0a830292505b8294505050505092915050565b60c060405190810160405280600073ffffffffffffffffffffffffffffffffffffffff16815260200160008152602001600081526020016000815260200160008152602001600081525090565b828054600181600116156101000203166002900490600052602060002090601f016020900481019282601f1061298557805160ff19168380011785556129b3565b828001600101855582156129b3579182015b828111156129b2578251825591602001919060010190612997565b5b5090506129c091906129c4565b5090565b6129e691905b808211156129e25760008160009055506001016129ca565b5090565b905600a165627a7a723058203700de0b281730bf4f4fed8ebbda01a126384e8be296ba53a86389c704d1a3480029",
  "source": "pragma solidity ^0.4.4;\n\nimport \"./oraclizeAPI.sol\";\n\nimport \"./Ownable.sol\";\nimport \"./SafeMath.sol\";\n\ncontract Dice is usingOraclize, Ownable {\n  using SafeMath for uint256;\n\n  uint256 constant INVALID_ROLL = 0;\n\n  // Depends on slider\n  uint256 constant MIN_ROLL = 1;\n  uint256 constant MAX_ROLL = 100;\n  bytes32 constant DEFAULT_BYTES32 = 0x0000000000000000000000000000000000000000000000000000000000000000;\n\n  // This governs how much gas we'll have for the oraclize callback\n  uint256 constant ORACLIZE_GAS_COST = 500000;\n\n  // Tuneable by admin\n  uint256 public maxBet = 0.5 ether;\n\n  struct GameData {\n    address player;\n    uint256 odds; // represents the roll under which all winning rolls must lie\n    uint256 wager;\n    uint256 trueWager;\n    uint256 roll; // only populated when game is complete\n    uint256 maxProfit; // max profit calculated at roll time\n  }\n\n  mapping(bytes32 => GameData) _queryToGameData;\n\n  // For display purposes only\n  uint256 public completedGames = 0;\n\n  event RollCompleted(\n    address indexed player,\n    uint256 wager,\n    uint256 trueWager,\n    uint256 odds,\n    uint256 roll,\n    uint256 totalPayout\n  );\n\n  event RollSubmitted(\n    address indexed player,\n    uint256 odds,\n    uint256 trueWager\n  );\n\n  event PlayerPaidOut(\n    address indexed player,\n    uint256 payout\n  );\n\n  constructor() public {}\n\n  ////////////////\n  // ADMIN ACTIONS\n  ////////////////\n\n  function withdrawBalance() external onlyOwner {\n    uint256 balance = address(this).balance;\n\n    // No withdrawal necessary if <= 0 balance\n    require(balance > 0);\n\n    msg.sender.transfer(balance);\n  }\n\n  function addBalance() external payable {}\n\n  function setMaxBet(uint256 newMax) external onlyOwner {\n    maxBet = newMax;\n  }\n\n  ///////////////\n  // USER ACTIONS\n  ///////////////\n\n  // NOTE: Currently 5% of contract balance. Can be tuned\n  function getMaxProfit() public view returns(uint256) {\n    return address(this).balance / 20;\n  }\n\n  function rollDice(uint256 odds) external payable {\n    // Cannot send a bet along > maxBet\n    require(msg.value <= maxBet);\n\n    uint256 queryPrice = oraclize_getPrice(\"URL\");\n\n    // player's wager\n    require(msg.value > queryPrice);\n    uint256 wagerAfterQuery = msg.value.sub(queryPrice);\n    uint256 fee = _computeRollFee(wagerAfterQuery);\n    uint256 trueWager = wagerAfterQuery.sub(fee);\n\n    // NOTE: Can probably simplify this to something static\n    string memory queryStr = _getQueryStr(MIN_ROLL, MAX_ROLL);\n\n    // TODO: When we need to encrypt random.org encryption key, this will need to become a 'nested' query\n    bytes32 qId = oraclize_query(\"URL\", queryStr, ORACLIZE_GAS_COST);\n\n    emit RollSubmitted(msg.sender, odds, trueWager);\n\n    _queryToGameData[qId] = GameData(\n      msg.sender,\n      odds,\n      msg.value,\n      trueWager,\n      INVALID_ROLL,\n      getMaxProfit()\n    );\n  }\n\n  // NOTE: 1%, can be modified!\n  function _computeRollFee(uint256 wagerAfterQuery) private pure returns (uint256) {\n    return SafeMath.div(wagerAfterQuery, 100);\n  }\n\n  // NOTE: Doesn't use API key so that we don't have to do all the fancy encryption stuff.\n  function _getQueryStr(uint256 min, uint256 max) internal returns(string) {\n    return strConcat(\"https://www.random.org/integers/?num=1&min=\", uint2str(min), \"&max=\", uint2str(max), \"&col=1&base=10&format=plain&rnd=new\");\n  }\n\n  function __callback(bytes32 qId, string result, bytes proof) public {\n    // Must be called by oraclize\n    require(msg.sender == oraclize_cbAddress());\n\n    GameData memory game = _queryToGameData[qId];\n\n    // Game must not already have a roll associated with it\n    require(game.roll == INVALID_ROLL);\n\n    // Payout player\n    uint256 roll = _resultToRoll(result);\n\n    // Shouldn't ever be able to roll INVALID_ROLL\n    require(roll != INVALID_ROLL);\n\n    uint256 payout = _calculatePayout(qId, roll);\n    address player = game.player;\n    if (payout > 0) {\n      player.transfer(payout);\n      emit PlayerPaidOut(player, payout);\n    }\n\n    // TODO: Delete game in the future to save space\n    game.roll = roll;\n\n    // game completed!\n    completedGames = completedGames.add(1);\n    emit RollCompleted(player, game.wager, game.trueWager, game.odds, roll, payout);\n  }\n\n  function _calculatePayout(bytes32 qId, uint256 roll) internal view returns(uint256) {\n    GameData memory game = _queryToGameData[qId];\n\n    uint256 odds = game.odds;\n    if (roll >= odds) {\n      return 0;\n    } else {\n      uint256 wager = game.trueWager;\n      uint256 maxProfit = game.maxProfit;\n\n      // payout = wager + winningsMultiple * wager\n      // winnings = (100 - x) / x\n      uint256 probabilityOdds = odds.sub(1);\n      uint256 invOdds = MAX_ROLL.sub(probabilityOdds);\n      uint256 winnings = wager.mul(invOdds).div(probabilityOdds);\n      uint256 defaultWinnings = wager.add(winnings);\n\n      uint256 availableBalance = _getAvailableBalance() ;\n\n      if (winnings > maxProfit) {\n        return wager.add(maxProfit);\n      }\n\n      else if (defaultWinnings > availableBalance) {\n        return availableBalance;\n      }\n\n      else {\n        return defaultWinnings;\n      }\n    }\n  }\n\n  // NOTE: Set to less than total balance so contract balance can't ever be drained\n  function _getAvailableBalance() internal returns(uint256) {\n    return address(this).balance / 10;\n  }\n\n  function _resultToRoll(string result) internal returns(uint256) {\n    return parseInt(result);\n  }\n}\n",
  "sourcePath": "/Users/lakshmansankar/src/whaleparty/contracts/Dice.sol",
  "compiler": {
    "name": "solc",
    "version": "0.4.23+commit.124ca40d.Emscripten.clang"
  },
  "schemaVersion": "2.0.0",
  "updatedAt": "2018-06-21T20:16:26.093Z"
}